:100000000C94B4000C94BD080C94BD080C94BD086D
:100010000C94BD080C94BD080C94BD080C94BD084C
:100020000C94BD080C94BD080C94BD080C94BD083C
:100030000C94BD080C94BD080C94BD080C94BD082C
:100040000C94BD080C94BD080C94BD080C94BD081C
:100050000C94BD080C94BD080C94BD080C94BD080C
:100060000C94BD080C94BD080100013E80000040C6
:100070007A10F35A00A0724E18090010A5D4E800B7
:1000800000E87648170000E40B54020000CA9A3BCF
:10009000000000E1F5050000809698000000404255
:1000A0000F000000A08601000000102700000000E3
:1000B000E803000000006400000000000A000000E7
:1000C00000000100000000002C76D888DC674F0893
:1000D00023DFC1DFAE59E1B1B796E5E3E453C63A99
:1000E000E651997696E8E6C28426EB898C9B62ED10
:1000F000407C6FFCEFBC9C9F40F2BAA56FA5F490CA
:10010000055A2AF75C936B6CF9676DC11BFCE0E440
:100110000D47FEF520E6B500D0ED902E0300943596
:1001200077050080841E080000204E0A000000C8E9
:100130000C333333330F986E12831141EF8D21143A
:10014000893BE65516CFFEE6DB18D1844B381BF70A
:100150007C1D901DA4BBE424203284725E228100A9
:10016000C9F124ECA1E53D2711241FBECFEFD8E053
:10017000DEBFCDBFE8E6F0E040E017C0B591A59145
:1001800035912591059107FD0CC095918591EF0161
:10019000F92FE82F05900D92A217B307D9F7FE01AA
:1001A00004C01D92A217B307E1F7ED36F40731F74B
:0C01B0000E9473050C94DC00F894FFCF53
:1001BC00434830202D3E2025640D0A00766F6C7468
:1001CC003A20252E32662020202074656D706572D1
:0E01DC0061747572613A20252E32660D0A009C
:0801EA00696E66006E616E0093
:1001F200A4E1B0E0EFEFF0E00C94F1076C011A011A
:10020200462E5901FC0110861782848181FF62C348
:10021200CE0101969D878C87A0E88A8B9B8BAC8B45
:10022200F101849147FC8081882309F44FC3442D56
:1002320091012F5F3F4F4F4F853219F01901442E24
:100242000AC0F901849147FD808192E0290E311C98
:10025200411C853249F4B60190E00E942507BF8611
:10026200AE86AE84BF84DCCF10E0F12C00E0003219
:10027200A0F48B3269F030F4803259F0833269F4A1
:1002820000612CC08D3239F0803339F4016026C010
:100292000260046023C0086021C007FD29C090ED00
:1002A200980F9A3078F406FF06C0AAE01A9F900DC4
:1002B2001124192F13C0EAE0FE9E900D1124F92E8D
:1002C20000620CC08E3221F406FD00C3006406C039
:1002D2008C3611F4006802C0883651F4F101849121
:1002E20047FC8081FFEF2F1A3F0A4F0A8111BFCFCF
:1002F2009BEB980F933018F40061805E06C09BE977
:10030200980F933008F066C10F7E06FF16E00F7358
:10031200702E853621F4202F2064722E08C0863676
:1003220021F4802F8068782E02C01111115077FEBF
:1003320007C01C3350F4EE24E394E10E27E00BC017
:10034200183038F027E017E005C027E06CE3E62E0E
:1003520002C0212FE12CF5013496FF87EE87F501CB
:1003620060817181828193810E2DAE014F5F5F4F5B
:100372000E949B045C01598050FE02C053FE06C0DD
:1003820071FC06C072FE06C000E205C00DE203C0A9
:100392000BE201C000E0852D8C7019F0011173C2CF
:1003A200BEC277FE0FC0EA0C54FE04C08A818133BC
:1003B20009F4EA941E1474F528E02E1578F538E055
:1003C200E32E2CC076FC2AC0812F90E08A159B0573
:1003D2009CF08CEFA8168FEFB80674F0972D9068FA
:1003E200792E0AC0E2E0F0E0EC0FFD1FE10FF11DF3
:1003F2008081803319F411501111F4CF77FE0EC0B1
:10040200EE24E394E10E812F90E0A816B9062CF4B5
:100412001A1904C0EE24E39401C010E077FE06C06E
:100422001A141B0434F4C501019605C085E090E05E
:1004320002C081E090E001110196112331F0212FD9
:1004420030E02F5F3F4F820F931F2F2D30E0821736
:10045200930714F4F81A01C0F12C872D897049F41E
:10046200FF2039F0B60180E290E00E942507FA945D
:10047200F7CF002329F0B601802F90E00E942507D4
:1004820073FC09C0FF2039F0B60180E390E00E94BE
:100492002507FA94F7CF77FE49C03501B7FE02C0AF
:1004A200612C712CC5018619970988248394912C9B
:1004B2008C0E9D1E880E991EF501EE19F109F98B1D
:1004C200E88B012F10E0119501951109FFEF6F16CE
:1004D2007F0629F4B6018EE290E00E942507A61459
:1004E200B70444F088899989861597051CF4F401AC
:1004F200818101C080E3F1E06F1A71082FEF821A47
:10050200920A601671062CF0B60190E00E9425074F
:10051200DDCFA614B70439F49A81963318F49533D3
:1005220011F454FE81E3B60190E051C08A81813317
:1005320019F0952D9F7E592EB60190E00E94250755
:10054200111105C074FC1CC085E690E01BC0B60109
:100552008EE290E00E94250702E0010F82E011E0A6
:10056200180FE1E0F0E0EC0FFD1FE80FF11D8081B4
:10057200B60190E00E942507812F1013F0CFE2CF41
:1005820085E490E0B6010E942507B7FC05C0A114DE
:10059200B10439F454FE05C0B194A194B1088DE2BE
:1005A20001C08BE2B60190E00E94250780E3EAE0F9
:1005B200AE16B1042CF08F5FAAE0AA1AB108F7CFE9
:1005C200B60190E00E942507B601C501C0960E94BF
:1005D200250772C1833631F0833791F0833509F0F4
:1005E2005DC024C0C50102969F878E87F501808178
:1005F20089836A887B888C88AA24A394B12C14C02E
:10060200C50103969F878E87F50160807180828085
:1006120006FF03C0412F50E002C04FEF5FEF882D6D
:10062200B3010E9428085C010F7715C0C50103962B
:100632009F878E87F50160807180828006FF03C0EC
:10064200412F50E002C04FEF5FEF882DB3010E94AF
:1006520028085C01006803FD1DC08F2D90E0A816DC
:10066200B906C0F4B60180E290E00E942507FA9430
:10067200F4CFF301849187FC8081FFEF6F1A7F0A28
:100682008F0AB60190E00E942507F110FA9421E04A
:10069200A21AB108A114B10461F70EC1843611F097
:1006A200893679F5C50107FF09C004969F878E87B1
:1006B200F50160817181828193810AC002969F87D0
:1006C2008E87F50160817181072E000C880B990BD2
:1006D2000F76E02E97FF0AC09095809570956195F0
:1006E2007F4F8F4F9F4FF02FF068EF2E2AE030E0C0
:1006F200AE014F5F5F4F0E948A06A82E2C85A21A78
:100702004BC0853729F40F7EE02E2AE030E025C069
:10071200902F997FE92E8F36C1F018F4883579F041
:10072200D5C0803719F0883721F0D0C0A92FA06139
:10073200EA2EE4FE0DC0EE2DE460EE2E09C004FFA9
:100742000AC0F92FF660EF2E06C028E030E005C09F
:1007520020E130E002C020E132E0C501E7FE09C03D
:1007620004969F878E87F5016081718182819381D2
:1007720008C002969F878E87F5016081718180E0B3
:1007820090E0AE014F5F5F4F0E948A06A82EFC8563
:10079200AF1A2E2D2F77E22EE6FE0BC00E2D0E7F06
:1007A200A11650F4E4FE0AC0E2FC08C00E2D0E7E33
:1007B20005C0BA2C0E2D03C0BA2C01C0B12E04FF05
:1007C2000DC0FE01EA0DF11D8081803311F4097E16
:1007D20009C002FF06C0B394B39404C0802F867888
:1007E20009F0B39403FD11C000FF06C0BF1488F4E2
:1007F200FA0C1F2D1B190EC0BF1460F4B60180E263
:1008020090E00E942507B394F7CFBF1418F4FB18A9
:1008120002C01A2DF12C04FF10C0B60180E390E053
:100822000E94250702FF17C001FD03C088E790E080
:1008320002C088E590E0B6010CC0802F867859F09E
:1008420001FF02C08BE201C080E207FD8DE2B6012A
:1008520090E00E942507A11638F4B60180E390E0EB
:100862000E9425071150F7CFAA94E1E0F0E0EC0FC7
:10087200FD1FEA0DF11D8081B60190E00E9425075F
:10088200A110F2CF19C0F4E0FF1580F584E0F81A48
:1008920073FE23C001112BC053FE2FC05EEE852EC6
:1008A20051E0952E50E0A52E072D0071F4018491A0
:1008B200A7FC8081811128C0FF2009F4D2CCB601A7
:1008C20080E290E00E942507FA94F6CFF601878134
:1008D20090852CC08FEF9FEF29C0B60180E290E097
:1008E2000E942507FA94F110F8CFD4CFF12CB6016B
:1008F200802F90E00E942507CFCF4AEE842E41E060
:10090200942E40E0A42ED0CF01118052B60190E087
:100912000E942507FFEF8F1A9F0AAF0AC7CF23E075
:100922002F1510F483E0B3CFF12CB6CF6496E2E139
:040932000C940D080C
:10093600283008F027E03327DA01990F311D87FDAB
:10094600916000966105710539F432602E5F3D9322
:1009560030E32A95E1F708959F3F30F0803871051E
:10096600610509F03C5F3C5F3D93913008F080687B
:10097600911DDF93CF931F930F93FF92EF92192F41
:10098600987F9695E92F96959695E90FFF27E85358
:10099600FF4F99273327EE24FF24A701E70105908F
:1009A6000894079428F4360FE71EF81E491F511DB8
:1009B600660F771F881F991F0694A1F70590079465
:1009C60028F4E70EF81E491F561FC11D770F881F12
:1009D600991F661F0694A1F70590079428F4F80E50
:1009E600491F561FC71FD11D880F991F661F771FE6
:1009F6000694A1F70590079420F4490F561FC71FC8
:100A0600D81F990F661F771F881F0694A9F7849130
:100A16001095177041F0D695C79557954795F79459
:100A2600E7941A95C1F7EEE6F0E0689415901591F3
:100A360035916591959105907FE27395E118F10ADC
:100A4600430B560BC90BD009C0F7E10CF11E431F2F
:100A5600561FC91FD01D7EF4703311F48A95E6CF58
:100A6600E894015030F0080F0AF40027021708F442
:100A7600202F2395022F7A3328F079E37D932A9548
:100A8600E9F710C07D932A9589F6069497956795A0
:100A9600379517951794E118F10A430B560BC90BB6
:100AA600D00998F023957E9173957A3308F070E318
:100AB6007C932013B8F77E9170617D9330F0839517
:100AC60071E37D9370E32A95E1F71124EF90FF908F
:100AD6000F911F91CF91DF91992787FD90950895EA
:100AE60084B1816084B940E855E260E070E081E05D
:100AF6000E9461070E946D0880E00E94430880936F
:100B06000401909305019F938F938CEB91E0A0E0F5
:100B1600AF939F938F93C6E0D1E0DF93CF930E946C
:100B2600AC0790933D0180933C01BC01CE010E942D
:100B3600590882E00E9443089093050180930401BE
:100B4600BC0180E090E00E94E80620E030E040EA48
:100B560050E40E94B60820E030E040E85AE30E94E4
:100B6600B608162F072FF82EE92E862F902FAF2DB9
:100B7600BE2D8093380190933901A0933A01B0932A
:100B86003B0120E030E048EC52E4612F702F8F2DBE
:100B96009E2D0E94B608262F372F462F572F682FD7
:100BA600792F4093000150930101609302017093E5
:100BB60003019F938F933F932F93EF92FF920F938F
:100BC6001F9388EC91E0A0E0AF939F938F93DF9300
:100BD600CF930E94AC0790933D0180933C01BC01EA
:100BE600CE010E9459086091000170910101809127
:100BF6000201909103012DB73EB72C5E3F4F0FB611
:100C0600F8943EBF0FBE2DBF20E030E040EF51E428
:100C16000E94B108181624F485B1816085B903C015
:100C260085B18E7F85B93FEF83EC99E031508040E6
:0A0C36009040E1F700C000005FCF1E
:100C40000FC00E94960838F00E949D0820F095235E
:100C500011F00C94AB080C94BA0811240C94A5085C
:100C60000E94CF0770F3959FC1F3950F50E0551F79
:100C7000629FF001729FBB27F00DB11D639FAA27F1
:100C8000F00DB11DAA1F649F6627B00DA11D661F40
:100C9000829F2227B00DA11D621F739FB00DA11D61
:100CA000621F839FA00D611D221F749F3327A00D1B
:100CB000611D231F849F600D211D822F762F6A2FB7
:100CC00011249F5750409AF0F1F088234AF0EE0F1C
:100CD000FF1FBB1F661F771F881F91505040A9F749
:100CE0009E3F510580F00C94AB080C94A5085F3F23
:100CF000E4F3983ED4F3869577956795B795F79585
:100D0000E7959F5FC1F7FE2B880F911D96958795FC
:040D100097F90895B2
:100D1400FA01AA27283051F1203181F1E8946F9328
:100D24006E7F6E5F7F4F8F4F9F4FAF4FB1E03ED0CE
:100D3400B4E03CD0670F781F891F9A1FA11D680F6C
:100D4400791F8A1F911DA11D6A0F711D811D911D9F
:100D5400A11D20D009F468943F912AE0269F112414
:100D64003019305D3193DEF6CF010895462F477078
:100D7400405D4193B3E00FD0C9F7F6CF462F4F70D3
:100D8400405D4A3318F0495D31FD4052419302D031
:100D9400A9F7EACFB4E0A6959795879577956795D7
:100DA400BA95C9F700976105710508959B01AC01D7
:100DB4000A2E06945795479537952795BA95C9F7FE
:0C0DC400620F731F841F951FA01D08956F
:100DD000E89409C097FB3EF49095809570956195D5
:100DE0007F4F8F4F9F4F9923A9F0F92F96E9BB278B
:100DF0009395F695879577956795B795F111F8CF07
:100E0000FAF4BB0F11F460FF1BC06F5F7F4F8F4F71
:100E10009F4F16C0882311F096E911C0772321F067
:100E20009EE8872F762F05C0662371F096E8862FFF
:100E300070E060E02AF09A95660F771F881FDAF756
:0A0E4000880F9695879597F908959D
:100E4A000F931F93CF93DF93FB01248121FD03C0EE
:100E5A008FEF9FEF2CC022FF16C047815085258156
:100E6A0036814217530744F4A081B1819D012F5F57
:100E7A003F4F318320838C93278130852F5F3F4FEB
:100E8A003087278314C08B01EC01FB010184F285B2
:100E9A00E02D0995892BE1F6D80117968D919C9141
:100EAA001897019618969C938E931797CE01DF9107
:080EBA00CF911F910F910895E3
:100EC200813041F4E0ECF0E08081826080838FEC3D
:100ED20090E002C087E690E09093C5008093C40042
:100EE200E2ECF0E080818B7F80838081866080836A
:100EF20080818F7C80838081877F8083E1ECF0E03A
:0E0F020080818861808380818068808308956B
:100F1000990F0008550FAA0BE0E8FEEF161617060A
:100F2000E807F907C0F012161306E407F50798F072
:100F3000621B730B840B950B39F40A2661F0232B8B
:100F4000242B252B21F408950A2609F4A140A69507
:080F50008FEF811D811D089542
:100F5800AFE0B0E0E2EBF7E00C94FF070E891F89E1
:100F680086E08D831A8309838FEF9FE79F838E83A3
:100F78009E01255E3F4F488D598D6A8DCE010196A1
:100F88000E94F900E885F985E00FF11F10822F967D
:060F9800E4E00C941B08CC
:100F9E0057FD9058440F551F59F05F3F71F047951C
:100FAE00880F97FB991F61F09F3F79F08795089501
:100FBE00121613061406551FF2CF4695F1DF08C020
:100FCE00161617061806991FF1CF8695710561053D
:040FDE0008940895D6
:100FE2002F923F924F925F926F927F928F929F9237
:100FF200AF92BF92CF92DF92EF92FF920F931F9325
:10100200CF93DF93CDB7DEB7CA1BDB0B0FB6F894D5
:08101200DEBF0FBECDBF099443
:10101A002A88398848885F846E847D848C849B847E
:10102A00AA84B984C884DF80EE80FD800C811B818C
:10103A00AA81B981CE0FD11D0FB6F894DEBF0FBEBB
:06104A00CDBFED01089589
:10105000CF92DF92EF926B01E82EA82FCB014115C2
:10106000510531F48C199D09EF90DF90CF900895D0
:10107000FC012491A7FD20812223A1F30196A11D4B
:0610800041505109ECCFC4
:10108600ECE7F0E09081987F90839081892B8083B4
:10109600EAE7F0E080818064808380917A0086FDB3
:0C10A600FCCF80917800909179000895B3
:1010B2000F931F93CF93DF93EC0104C089910E9499
:1010C2008F08B8018B0101501109672BB9F7DF9125
:0810D200CF911F910F910895C9
:1010DA00EAE7F0E0808187608083ACE7B0E08C913A
:1010EA008F738C938C9180648C93808180688083C9
:0210FA00089557
:1010FC00092E0394000C11F4882352F0BB0F40F41A
:10110C00BF2B11F460FF04C06F5F7F4F8F4F9F4F59
:02111C00089534
:0E111E009091C00095FFFCCF8093C60008950D
:0E112C0000240A9416161706180609060895E0
:0E113A0000240A9412161306140605060895E2
:0E114800E894BB2766277727CB0197F9089517
:0C11560097F99F6780E870E060E0089562
:0A1162000E94880708F48FEF08953B
:08116C000E9420060C947E088D
:061174009FEF80EC0895DE
:04117A000C940000D1
:00000001FF
