:100000000C9437000C945F040C945F040C945F0410
:100010000C945F040C945F040C945F040C945F04D4
:100020000C945F040C945F040C945F040C945F04C4
:100030000C945F040C945F040C945F040C945F04B4
:100040000C945F040C945F040C945F040C945F04A4
:100050000C945F040C945F040C945F040C945F0494
:100060000C945F040C945F0401000134800011249F
:100070001FBECFEFD8E0DEBFCDBFE8E6F0E040E046
:1000800017C0B591A59135912591059107FD0CC03B
:1000900095918591EF01F92FE82F05900D92A21708
:1000A000B307D9F7FE0104C01D92A217B307E1F709
:1000B000ED36F40731F70E94FD020C945F00F894CE
:0200C000FFCF70
:1000C2004C45435455524120414443204445204429
:1000D2004F532043414E414C45530D0A0041444386
:1000E20030202D3E2575202C20414443312D3E25C4
:0400F200750D0A007E
:1000F6002F923F924F926F927F928F929F92AF92E2
:10010600BF92CF92DF92EF92FF920F931F93CF93FE
:10011600DF93CDB7DEB762970FB6F894DEBF0FBE9A
:10012600CDBF6C013A01862E7901FC01108617823B
:10013600848181FFE7C19E012F5F3F4F3D872C875A
:10014600C901A0E8888B998BAA8B9FE3992EF301AE
:10015600849187FC8081882309F4D0C1482D9301BE
:100166002F5F3F4F4F4F853219F03901842E0AC059
:10017600F901849147FD808192E0690E711C811C12
:10018600853229F4B60190E00E944903E0CFB12CF4
:1001960000E010E01032A0F48B3269F030F48032C7
:1001A60059F0833269F410612CC08D3239F08033F6
:1001B60039F4116026C01260146023C0186021C093
:1001C60017FD29C090ED980F9A3078F416FF06C0F7
:1001D600AAE0BA9E900D1124B92E13C0EAE00E9F34
:1001E600900D1124092F10620CC08E3221F416FDD9
:1001F60085C1106406C08C3611F4106802C08836BA
:1002060051F4F301849187FC8081FFEF6F1A7F0A16
:100216008F0A8111BFCF982F9F7D9554933028F474
:1002260024E0E20EF11C99820FC0833631F0833749
:1002360091F0833509F063C027C0F7018081898377
:1002460097012E5F3F4F7901288839884A88AA246A
:10025600A394B12C17C0A7014D5F5F4F5F874E87F0
:10026600F70120803180428016FF03C04B2D50E0FD
:1002760002C04FEF5FEF842DB1010E94C4035C0101
:10028600EE84FF841F7718C097012D5F3F4F3F878D
:100296002E87F70120803180428016FF03C04B2D48
:1002A60050E002C04FEF5FEF842DB1010E94C403FE
:1002B6005C011068EE84FF8413FD1DC0802F90E062
:1002C600A816B906C0F4B60180E290E00E94490380
:1002D6000150F4CFF101849147FC8081FFEF2F1A82
:1002E6003F0A4F0AB60190E00E94490301110150EE
:1002F60021E0A21AB108A114B10461F7F5C0843651
:1003060011F0893671F5F70117FF08C06081718118
:100316008281938197012C5F3F4F09C06081718173
:10032600072E000C880B990B97012E5F3F4F790122
:100336001F76312E97FF0AC090958095709561952E
:100346007F4F8F4F9F4F312F3068332E2AE030E09A
:10035600AE014F5F5F4F0E949F02482E4C85441AA4
:100366004AC0853729F41F7EA12E2AE030E025C039
:10037600512F597FA52E8F36C1F018F4883579F0A4
:10038600BDC0803719F0883721F0B8C0852F80614D
:10039600A82EA4FE0DC09A2D9460A92E09C014FFA4
:1003A6000AC0A52FA660AA2E06C028E030E005C028
:1003B60020E130E002C020E132E0F701A7FE08C0EC
:1003C6006081718182819381A7014C5F5F4F07C075
:1003D6006081718180E090E0A7014E5F5F4F7A01F6
:1003E600AE014F5F5F4F0E949F02482E5C85451A03
:1003F6008A2D8F77382E36FE0DC0932D9E7FA92E1F
:100406004B1458F434FE0BC032FC09C0A32DAE7E4B
:10041600AA2E05C0142DA32C03C0142D01C01B2D1C
:10042600A4FE0EC0FE01E40DF11D8081803321F48F
:10043600EA2DE97EAE2E08C0A2FE05C01E5F04C0EE
:100446008A2D867809F01F5FA3FC11C0A0FE06C0A6
:10045600101788F4040DB02EB11A0EC0101760F4F0
:10046600B60180E290E00E9449031F5FF7CF1017A4
:1004760018F4011B02C0B42C00E0A4FE10C0B601A3
:1004860080E390E00E944903A2FE17C0A1FC03C0CE
:1004960088E790E002C088E590E0B6010CC08A2D9E
:1004A600867859F0A1FE02C08BE201C080E2A7FC6B
:1004B6008DE2B60190E00E9449034B1438F4B60170
:1004C60080E390E00E944903BA94F7CF4A94E1E0B2
:1004D600F0E0EC0FFD1FE40DF11D8081B60190E008
:1004E6000E9449034110F2CF002309F430CEB60131
:1004F60080E290E00E9449030150F6CFF601878121
:10050600908502C08FEF9FEF62960FB6F894DEBF1C
:100516000FBECDBFDF91CF911F910F91FF90EF904E
:10052600DF90CF90BF90AF909F908F907F906F900D
:080536004F903F902F900895B3
:10053E00FA01AA27283051F1203181F1E8946F9306
:10054E006E7F6E5F7F4F8F4F9F4FAF4FB1E03ED0AC
:10055E00B4E03CD0670F781F891F9A1FA11D680F4A
:10056E00791F8A1F911DA11D6A0F711D811D911D7D
:10057E00A11D20D009F468943F912AE0269F1124F2
:10058E003019305D3193DEF6CF010895462F477056
:10059E00405D4193B3E00FD0C9F7F6CF462F4F70B1
:1005AE00405D4A3318F0495D31FD4052419302D00F
:1005BE00A9F7EACFB4E0A6959795879577956795B5
:1005CE00BA95C9F700976105710508959B01AC01B5
:1005DE000A2E06945795479537952795BA95C9F7DC
:0C05EE00620F731F841F951FA01D08954D
:1005FA000E94FA030E9451042DE130E042EC50E0DF
:10060A0060E080E091E00E9413048CE190E0909316
:10061A003301809332016CE170E080E091E00E9446
:10062A00420480E00E942C04C82FD92F81E00E9446
:10063A002C049F938F93DF93CF938FED90E0A0E0EC
:10064A00AF939F938F9380E091E09F938F930E9443
:10065A0085039093330180933201BC0180E091E0DD
:10066A000E9442042FEF84E39CE021508040904096
:10067A00E1F700C000008DB79EB709960FB6F8944F
:08068A009EBF0FBE8DBFCDCF56
:100692000F931F93CF93DF93FB01248121FD03C0AE
:1006A2008FEF9FEF2CC022FF16C047815085258116
:1006B20036814217530744F4A081B1819D012F5F17
:1006C2003F4F318320838C93278130852F5F3F4FAB
:1006D2003087278314C08B01EC01FB010184F28572
:1006E200E02D0995892BE1F6D80117968D919C9101
:1006F2001897019618969C938E931797CE01DF91C7
:08070200CF911F910F910895A2
:10070A00AFE0B0E0EBE8F3E00C94B6030E891F8982
:10071A0086E08D831A8309838FEF9FE79F838E83F9
:10072A009E01255E3F4F488D598D6A8DCE010196F7
:10073A000E947B00E885F985E00FF11F10822F9651
:06074A00E4E00C94ED0355
:100750002F923F924F925F926F927F928F929F92D1
:10076000AF92BF92CF92DF92EF92FF920F931F93BF
:10077000CF93DF93CDB7DEB7CA1BDB0B0FB6F89470
:08078000DEBF0FBECDBF0994DE
:10078800CF92DF92EF926B01E82EA82FCB01411593
:10079800510531F48C199D09EF90DF90CF900895A1
:1007A800FC012491A7FD20812223A1F30196A11D1C
:0607B80041505109ECCF95
:1007BE002A88398848885F846E847D848C849B84E3
:1007CE00AA84B984C884DF80EE80FD800C811B81F1
:1007DE00AA81B981CE0FD11D0FB6F894DEBF0FBE20
:0607EE00CDBFED010895EE
:1007F4001092C50083E38093C400E2ECF0E08081B2
:100804008B7F808380818660808380818F7C8083DE
:100814008081877F8083E1ECF0E080818861808340
:02082400089535
:10082600CF92DF92EF92DC016A01E62E280F391F84
:10083600A217B30751F0F6014491E7FC40814D93AE
:100846004FEFC41AD40AE40AF3CFEF90DF90CF90AB
:02085600089503
:10085800ECE7F0E09081987F90839081892B8083EA
:10086800EAE7F0E080818064808380917A0086FDE9
:0C087800FCCF80917800909179000895E9
:10088400FC0109C09091C00095FFFCCF8191809339
:0E089400C6006150710961157105A1F7089544
:1008A200EAE7F0E0808186608083ACE7B0E08C917B
:0C08B2008F738C93808180688083089590
:0408BE000C94000096
:00000001FF
