:100000000C9437000C94DF000C94F1000C94F10078
:100010000C94F1000C94F1000C94F1000C94F1009C
:100020000C94F1000C94F1000C94F1000C94F1008C
:100030000C94F1000C94F1000C94F1000C94F1007C
:100040000C94F1000C94F1000C94F1000C94F1006C
:100050000C94F1000C94F1000C94F1000C94F1005C
:100060000C94F1000C94F1000100010180001124B6
:100070001FBECFEFD8E0DEBFCDBFE8E6F0E040E046
:1000800017C0B591A59135912591059107FD0CC03B
:1000900095918591EF01F92FE82F05900D92A21708
:1000A000B307D9F7FE0104C01D92A217B307E1F709
:1000B000ED36F40731F70E9461000C945F00F8946C
:0200C000FFCF70
:1000C200F8948AB18B7F8AB98BB184608BB9E9E6E7
:1000D200F0E08081826080838DB381608DBB7894F3
:1000E2008FEF84B987B18F6087B98091000188232F
:1000F200E1F315B888B1807F88B985B1816085B98F
:1001020085B1806285B985B1806485B988B188601E
:1001120088B92FEF89E698E1215080409040E1F7BD
:1001220000C0000015B888B1807F88B985B18260AF
:1001320085B985B1806285B985B1806885B988B194
:10014200886088B92FEF89E698E12150804090407D
:10015200E1F700C0000015B888B1807F88B985B189
:10016200846085B985B1886085B988B1816088B9B4
:1001720088B1826088B92FEF84E39CE021508040EF
:100182009040E1F700C0000015B888B1807F88B9BF
:1001920085B1846085B985B1806185B988B1816096
:1001A20088B988B1846088B92FEF84E39CE021503C
:0C01B20080409040E1F700C0000097CFB3
:1001BE001F920F920FB60F9211248F9381E08093AE
:1001CE0000018DB38E7F8DBB8F910F900FBE0F9060
:0401DE001F901895C1
:0401E2000C94000079
:00000001FF
