:100000000C943A000C94CC050C9432060C943206F5
:100010000C9432060C9432060C9432060C94320680
:100020000C9432060C9432060C9432060C94320670
:100030000C9432060C9432060C9432060C94320660
:100040000C9432060C9432060C9432060C94320650
:100050000C9432060C9432060C9432060C94320640
:100060000C9432060C943206010001168001160130
:100070001700016D11241FBECFEFD8E0DEBFCDBF4A
:10008000E8E6F0E040E017C0B591A59135912591E3
:10009000059107FD0CC095918591EF01F92FE82F8F
:1000A00005900D92A217B307D9F7FE0104C01D9267
:1000B000A217B307E1F7E437F40731F70E94DB0238
:0800C0000C946200F894FFCFDC
:1000C8002A2A5155494E4F20422E204A454646522B
:1000D800592A2A002D2D2D2D2D2D2D2D3E415652DC
:1000E8003C2D2D2D2D2D2D2D2D00454E45524F20CB
:1000F8002D200041544D45474133323850002020CF
:1001080020202020202020202020202020202020E7
:0D01180020202000494E54302D3E2564006B
:10012500110A041B1111110E1010101010101010CF
:1001350018181818181818181C1C1C1C1C1C1C1C1A
:100145001E1E1E1E1E1E1E1E1F1F1F1F1F1F1F1FC2
:10015500000000000000000000000000000000009A
:08016500256400252E3266001E
:01016D000190
:10016E002F923F924F926F927F928F929F92AF9269
:10017E00BF92CF92DF92EF92FF920F931F93CF9386
:10018E00DF93CDB7DEB762970FB6F894DEBF0FBE22
:10019E00CDBF6C013A01862E7901FC0110861782C3
:1001AE00848181FFE7C19E012F5F3F4F3D872C87E2
:1001BE00C901A0E8888B998BAA8B9FE3992EF30136
:1001CE00849187FC8081882309F4D0C1482D930146
:1001DE002F5F3F4F4F4F853219F03901842E0AC0E1
:1001EE00F901849147FD808192E0690E711C811C9A
:1001FE00853229F4B60190E00E948904E0CFB12C3B
:10020E0000E010E01032A0F48B3269F030F480324E
:10021E0059F0833269F410612CC08D3239F080337D
:10022E0039F4116026C01260146023C0186021C01A
:10023E0017FD29C090ED980F9A3078F416FF06C07E
:10024E00AAE0BA9E900D1124B92E13C0EAE00E9FBB
:10025E00900D1124092F10620CC08E3221F416FD60
:10026E0085C1106406C08C3611F4106802C0883641
:10027E0051F4F301849187FC8081FFEF6F1A7F0A9E
:10028E008F0A8111BFCF982F9F7D9554933028F4FC
:10029E0024E0E20EF11C99820FC0833631F08337D1
:1002AE0091F0833509F063C027C0F70180818983FF
:1002BE0097012E5F3F4F7901288839884A88AA24F2
:1002CE00A394B12C17C0A7014D5F5F4F5F874E8778
:1002DE00F70120803180428016FF03C04B2D50E085
:1002EE0002C04FEF5FEF842DB1010E947D055C01CE
:1002FE00EE84FF841F7718C097012D5F3F4F3F8715
:10030E002E87F70120803180428016FF03C04B2DCF
:10031E0050E002C04FEF5FEF842DB1010E947D05CA
:10032E005C011068EE84FF8413FD1DC0802F90E0E9
:10033E00A816B906C0F4B60180E290E00E948904C6
:10034E000150F4CFF101849147FC8081FFEF2F1A09
:10035E003F0A4F0AB60190E00E9489040111015034
:10036E0021E0A21AB108A114B10461F7F5C08436D8
:10037E0011F0893671F5F70117FF08C060817181A0
:10038E008281938197012C5F3F4F09C060817181FB
:10039E00072E000C880B990B97012E5F3F4F7901AA
:1003AE001F76312E97FF0AC09095809570956195B6
:1003BE007F4F8F4F9F4F312F3068332E2AE030E022
:1003CE00AE014F5F5F4F0E942B04482E4C85441A9E
:1003DE004AC0853729F41F7EA12E2AE030E025C0C1
:1003EE00512F597FA52E8F36C1F018F4883579F02C
:1003FE00BDC0803719F0883721F0B8C0852F8061D5
:10040E00A82EA4FE0DC09A2D9460A92E09C014FF2B
:10041E000AC0A52FA660AA2E06C028E030E005C0AF
:10042E0020E130E002C020E132E0F701A7FE08C073
:10043E006081718182819381A7014C5F5F4F07C0FC
:10044E006081718180E090E0A7014E5F5F4F7A017D
:10045E00AE014F5F5F4F0E942B04482E5C85451AFC
:10046E008A2D8F77382E36FE0DC0932D9E7FA92EA6
:10047E004B1458F434FE0BC032FC09C0A32DAE7ED3
:10048E00AA2E05C0142DA32C03C0142D01C01B2DA4
:10049E00A4FE0EC0FE01E40DF11D8081803321F417
:1004AE00EA2DE97EAE2E08C0A2FE05C01E5F04C076
:1004BE008A2D867809F01F5FA3FC11C0A0FE06C02E
:1004CE00101788F4040DB02EB11A0EC0101760F478
:1004DE00B60180E290E00E9489041F5FF7CF1017EB
:1004EE0018F4011B02C0B42C00E0A4FE10C0B6012B
:1004FE0080E390E00E948904A2FE17C0A1FC03C015
:10050E0088E790E002C088E590E0B6010CC08A2D25
:10051E00867859F0A1FE02C08BE201C080E2A7FCF2
:10052E008DE2B60190E00E9489044B1438F4B601B6
:10053E0080E390E00E948904BA94F7CF4A94E1E0F8
:10054E00F0E0EC0FFD1FE40DF11D8081B60190E08F
:10055E000E9489044110F2CF002309F430CEB60177
:10056E0080E290E00E9489040150F6CFF601878167
:10057E00908502C08FEF9FEF62960FB6F894DEBFA4
:10058E000FBECDBFDF91CF911F910F91FF90EF90D6
:10059E00DF90CF90BF90AF909F908F907F906F9095
:0805AE004F903F902F9008953B
:1005B6008AB1877F8AB98BB188608BB9F8948AB182
:1005C6008B7F8AB98BB184608BB9E9E6F0E08081D4
:1005D600826080838DB381608DBB789484B188609E
:1005E60084B987B1846087B90E948F0381E00E9435
:1005F600200624E130E048EC50E060E080E091E045
:100606000E94B30580E091E00E94130660E081E05D
:100616000E94E20526E130E04CED50E060E080E02B
:1006260091E00E94B30580E091E00E94130660E02D
:1006360082E00E94E20529E030E042EF50E060E00F
:1006460080E091E00E94B30580E091E00E941306ED
:1006560086EE97E00E94C50460E083E00E94E20512
:100666008EE00E9420068FE00E9420062BE030E0FC
:100676004BEF50E060E080E091E00E94B30580E03F
:1006860091E00E94130680911501882399F110923A
:10069600150160E083E00E94E20526E130E046E0D5
:1006A60051E060E080E091E00E94B30580E091E0D7
:1006B6000E94130660E083E00E94E2058091160125
:1006C6001F928F938CE191E0A0E0AF939F938F935D
:1006D60080E091E09F938F930E943E0580E091E039
:1006E6000E9413068DB79EB707960FB6F8949EBF65
:1006F6000FBE8DBF4B99C7CF9FEF29E688E191507A
:1007060020408040E1F700C0000003C086B184604D
:0807160086B94B9BFBCFB7CF66
:10071E00CF92DF92EF92CF930E9419052FE782E3DB
:10072E0092E0215080409040E1F700C0000085B17A
:10073E00806285B988B1816088B988B18D7F88B9AA
:10074E0088B1877F88B98FE59AEE0197F1F700C0DF
:10075E00000085B1806285B988B1816088B988B1A1
:10076E008D7F88B988B1877F88B90E9406068FEB86
:10077E009DE50197F1F700C0000085B1806285B953
:10078E0088B1816088B988B18D7F88B988B1877F3B
:10079E0088B90E9406068FE99FE00197F1F700C025
:1007AE00000085B1806285B988B1816088B988B151
:1007BE008D7F88B988B1877F88B90E9406068FE938
:1007CE009FE00197F1F700C0000085B18F7D85B9DC
:1007DE0088B1816088B988B18D7F88B988B1877FEB
:1007EE0088B90E9406068FE99FE00197F1F700C0D5
:1007FE00000088E20E9420068CE00E94200686E01F
:10080E000E94200680E40E9420060F2EF5E2CF2ED5
:10081E00F1E0DF2EF0E0EF2EF02DC0E00BC0F60180
:10082E008491E7FC80810E942C06CF5F2FEFC21AC5
:10083E00D20AE20AC03498F380E80E942006CF91D3
:08084E00EF90DF90CF900895B8
:10085600FA01AA27283051F1203181F1E8946F93EB
:100866006E7F6E5F7F4F8F4F9F4FAF4FB1E03ED091
:10087600B4E03CD0670F781F891F9A1FA11D680F2F
:10088600791F8A1F911DA11D6A0F711D811D911D62
:10089600A11D20D009F468943F912AE0269F1124D7
:1008A6003019305D3193DEF6CF010895462F47703B
:1008B600405D4193B3E00FD0C9F7F6CF462F4F7096
:1008C600405D4A3318F0495D31FD4052419302D0F4
:1008D600A9F7EACFB4E0A69597958795779567959A
:1008E600BA95C9F700976105710508959B01AC019A
:1008F6000A2E06945795479537952795BA95C9F7C1
:0C090600620F731F841F951FA01D089531
:100912000F931F93CF93DF93FB01248121FD03C02B
:100922008FEF9FEF2CC022FF16C047815085258193
:1009320036814217530744F4A081B1819D012F5F94
:100942003F4F318320838C93278130852F5F3F4F28
:100952003087278314C08B01EC01FB010184F285EF
:10096200E02D0995892BE1F6D80117968D919C917E
:100972001897019618969C938E931797CE01DF9144
:08098200CF911F910F91089520
:10098A000F931F93CF93DF93CDB7DEB760970FB660
:10099A00F894DEBF0FBECDBF9F938F9385E691E09B
:1009AA00A0E0AF939F938F938E010F5F1F4F1F930A
:1009BA000F930E943E05C8010E9413060FB6F894D1
:1009CA00DEBF0FBECDBF60960FB6F894DEBF0FBE76
:0C09DA00CDBFDF91CF911F910F910895C8
:1009E60095B19F7D95B925B1982F91709295990FE4
:1009F600907E922B95B998B19E7F98B998B181FB5C
:100A0600222720F9922B98B998B19D7F98B928B1E1
:100A160082FB992790F9990F922B98B998B1977FF5
:0C0A260098B998B18870892B88B90895A0
:100A320084B1826084B984B1846084B984B18062F3
:100A420084B987B1816087B987B1826087B987B17C
:100A5200886087B985B18D7F85B985B18B7F85B96E
:100A620085B18F7D85B988B18E7F88B988B18D7F38
:0A0A720088B988B1877F88B908951C
:100A7C00AFE0B0E0E4E4F5E00C946F050E891F895B
:100A8C0086E08D831A8309838FEF9FE79F838E8384
:100A9C009E01255E3F4F488D598D6A8DCE01019682
:100AAC000E94B700E885F985E00FF11F10822F96A0
:060ABC00E4E00C94A60525
:100AC2002F923F924F925F926F927F928F929F925C
:100AD200AF92BF92CF92DF92EF92FF920F931F934A
:100AE200CF93DF93CDB7DEB7CA1BDB0B0FB6F894FB
:080AF200DEBF0FBECDBF099469
:100AFA00CF92DF92EF926B01E82EA82FCB0141151E
:100B0A00510531F48C199D09EF90DF90CF9008952B
:100B1A00FC012491A7FD20812223A1F30196A11DA6
:060B2A0041505109ECCF1F
:100B30002A88398848885F846E847D848C849B846D
:100B4000AA84B984C884DF80EE80FD800C811B817B
:100B5000AA81B981CE0FD11D0FB6F894DEBF0FBEAA
:060B6000CDBFED01089578
:100B6600CF92DF92EF92DC016A01E62E280F391F41
:100B7600A217B30751F0F6014491E7FC40814D936B
:100B86004FEFC41AD40AE40AF3CFEF90DF90CF9068
:020B96000895C0
:100B98001F920F920FB60F9211248F9388E083B99A
:100BA80081E080931501809116018F5F8093160173
:0C0BB8008F910F900FBE0F901F901895AA
:100BC400813039F060F0823031F0833031F080E0F0
:100BD40007C080EC05C084E903C084ED01C080E84F
:080BE400860F0E94200608950F
:100BEC00CF93C82F82958F700E94F3040E94060643
:100BFC008C2F8F700E94F3040E940606CF910895EB
:100C0C0085B1846085B98FEC97E00197F1F700C04E
:0A0C1C00000085B18B7F85B90895B3
:100C2600CF93DF93EC0103C00E942C0621968881A6
:0A0C36008111FACFDF91CF910895EC
:100C400095B19D7F95B90E94F6058FED9EE20197C3
:080C5000F1F700C00000089557
:0C0C580095B1926095B90E94F6050895D0
:040C64000C940000EC
:00000001FF
