:100000000C9437000C9463050C9463050C94630501
:100010000C9463050C9463050C9463050C946305C0
:100020000C9463050C9463050C9463050C946305B0
:100030000C9463050C9463050C9463050C946305A0
:100040000C9463050C9463050C9463050C94630590
:100050000C9463050C9463050C9463050C94630580
:100060000C9463050C9463050100014A800011247F
:100070001FBECFEFD8E0DEBFCDBFE8E6F0E040E046
:1000800017C0B591A59135912591059107FD0CC03B
:1000900095918591EF01F92FE82F05900D92A21708
:1000A000B307D9F7FE0104C01D92A217B307E1F709
:1000B000ED36F40731F70E94AC020C945F00F8941F
:0200C000FFCF70
:1000C200434F4E46494755524143494F4E205541B1
:1000D2005254300D0A0070726573696F6E61646FFD
:1000E2002D3E25630D0A004E554D45524F20494E77
:0D00F2004752455341444F2D3E000D0A007A
:1000FF003738392F343536583132332D63303D2B65
:100110002F923F924F926F927F928F929F92AF92C7
:10012000BF92CF92DF92EF92FF920F931F93CF93E4
:10013000DF93CDB7DEB762970FB6F894DEBF0FBE80
:10014000CDBF6C013A01862E7901FC011086178221
:10015000848181FFE7C19E012F5F3F4F3D872C8740
:10016000C901A0E8888B998BAA8B9FE3992EF30194
:10017000849187FC8081882309F4D0C1482D9301A4
:100180002F5F3F4F4F4F853219F03901842E0AC03F
:10019000F901849147FD808192E0690E711C811CF8
:1001A000853229F4B60190E00E942B04E0CFB12CF7
:1001B00000E010E01032A0F48B3269F030F48032AD
:1001C00059F0833269F410612CC08D3239F08033DC
:1001D00039F4116026C01260146023C0186021C079
:1001E00017FD29C090ED980F9A3078F416FF06C0DD
:1001F000AAE0BA9E900D1124B92E13C0EAE00E9F1A
:10020000900D1124092F10620CC08E3221F416FDBE
:1002100085C1106406C08C3611F4106802C088369F
:1002200051F4F301849187FC8081FFEF6F1A7F0AFC
:100230008F0A8111BFCF982F9F7D9554933028F45A
:1002400024E0E20EF11C99820FC0833631F083372F
:1002500091F0833509F063C027C0F701808189835D
:1002600097012E5F3F4F7901288839884A88AA2450
:10027000A394B12C17C0A7014D5F5F4F5F874E87D6
:10028000F70120803180428016FF03C04B2D50E0E3
:1002900002C04FEF5FEF842DB1010E94F2045C01B8
:1002A000EE84FF841F7718C097012D5F3F4F3F8773
:1002B0002E87F70120803180428016FF03C04B2D2E
:1002C00050E002C04FEF5FEF842DB1010E94F204B5
:1002D0005C011068EE84FF8413FD1DC0802F90E048
:1002E000A816B906C0F4B60180E290E00E942B0483
:1002F0000150F4CFF101849147FC8081FFEF2F1A68
:100300003F0A4F0AB60190E00E942B0401110150F0
:1003100021E0A21AB108A114B10461F7F5C0843636
:1003200011F0893671F5F70117FF08C060817181FE
:100330008281938197012C5F3F4F09C06081718159
:10034000072E000C880B990B97012E5F3F4F790108
:100350001F76312E97FF0AC0909580957095619514
:100360007F4F8F4F9F4F312F3068332E2AE030E080
:10037000AE014F5F5F4F0E94CD03482E4C85441A5B
:100380004AC0853729F41F7EA12E2AE030E025C01F
:10039000512F597FA52E8F36C1F018F4883579F08A
:1003A000BDC0803719F0883721F0B8C0852F806133
:1003B000A82EA4FE0DC09A2D9460A92E09C014FF8A
:1003C0000AC0A52FA660AA2E06C028E030E005C00E
:1003D00020E130E002C020E132E0F701A7FE08C0D2
:1003E0006081718182819381A7014C5F5F4F07C05B
:1003F0006081718180E090E0A7014E5F5F4F7A01DC
:10040000AE014F5F5F4F0E94CD03482E5C85451AB9
:100410008A2D8F77382E36FE0DC0932D9E7FA92E04
:100420004B1458F434FE0BC032FC09C0A32DAE7E31
:10043000AA2E05C0142DA32C03C0142D01C01B2D02
:10044000A4FE0EC0FE01E40DF11D8081803321F475
:10045000EA2DE97EAE2E08C0A2FE05C01E5F04C0D4
:100460008A2D867809F01F5FA3FC11C0A0FE06C08C
:10047000101788F4040DB02EB11A0EC0101760F4D6
:10048000B60180E290E00E942B041F5FF7CF1017A7
:1004900018F4011B02C0B42C00E0A4FE10C0B60189
:1004A00080E390E00E942B04A2FE17C0A1FC03C0D1
:1004B00088E790E002C088E590E0B6010CC08A2D84
:1004C000867859F0A1FE02C08BE201C080E2A7FC51
:1004D0008DE2B60190E00E942B044B1438F4B60173
:1004E00080E390E00E942B04BA94F7CF4A94E1E0B5
:1004F000F0E0EC0FFD1FE40DF11D8081B60190E0EE
:100500000E942B044110F2CF002309F430CEB60133
:1005100080E290E00E942B040150F6CFF601878123
:10052000908502C08FEF9FEF62960FB6F894DEBF02
:100530000FBECDBFDF91CF911F910F91FF90EF9034
:10054000DF90CF90BF90AF909F908F907F906F90F3
:080550004F903F902F90089599
:1005580040E855E260E070E081E00E94670426E12F
:1005680030E042EC50E060E082E091E00E94280533
:1005780085E190E0909335018093340165E170E066
:1005880082E091E00E9441050E948E040E9453037C
:1005980080930101882309F47BC02FEF31EE84E0BA
:1005A800215030408040E1F700C0000080910101F7
:1005B8001F928F9388ED90E0A0E0AF939F938F9365
:1005C80082E091E09F938F930E94B304909335014A
:1005D80080933401BC0182E091E00E944105809142
:1005E800010190ED980F2DB73EB7295F3F4F0FB629
:1005F800F8943EBF0FBE2DBF9A3050F49091000181
:10060800E92FF0E0EA5CFE4F80839F5F9093000142
:100618008835F1F523E130E049EE50E060E082E012
:1006280091E00E94280582E190E090933501809343
:10063800340162E170E082E091E00E94410560913E
:10064800000170E06150710986E391E00E94410564
:1006580023E030E04CEF50E060E082E091E00E945F
:10066800280582E090E0909335018093340162E0A0
:1006780070E082E091E00E9441054091000150E065
:1006880060E070E086E391E00E945C051092000152
:0E0698008FE39CE90197F1F700C0000077CFD7
:1006A60030E020E05DC08BB184608BB98BB188608F
:1006B6008BB98BB180618BB98BB180628BB92130DC
:1006C60051F028F0223059F0233069F00FC08BB179
:1006D6008B7F8BB90BC08BB1877F8BB907C08BB172
:1006E6008F7E8BB903C08BB18F7D8BB98FEC97E072
:1006F6000197F1F700C0000083B181FB662760F91E
:1007060070E0DB01AA0FBB1FAA0FBB1FAA0FBB1FFE
:1007160083B1E82FE170F0E0AF01440F551F440F9D
:10072600551F99B1991F9927991F892F90E0880F16
:10073600991F99B14A2B842B96FB992790F9892BFF
:100746008B3031F08D3041F0873021F030E005C03C
:1007560032E003C033E001C031E0311104C02F5F45
:10076600243008F4A0CF332399F0822F90E0880F2D
:10077600991F880F991F830F911D092E000CAA0B34
:1007860081509F4FAF4FFC018491A7FD8081089552
:0407960080E0089562
:10079A00FA01AA27283051F1203181F1E8946F93A8
:1007AA006E7F6E5F7F4F8F4F9F4FAF4FB1E03ED04E
:1007BA00B4E03CD0670F781F891F9A1FA11D680FEC
:1007CA00791F8A1F911DA11D6A0F711D811D911D1F
:1007DA00A11D20D009F468943F912AE0269F112494
:1007EA003019305D3193DEF6CF010895462F4770F8
:1007FA00405D4193B3E00FD0C9F7F6CF462F4F7053
:10080A00405D4A3318F0495D31FD4052419302D0B0
:10081A00A9F7EACFB4E0A695979587957795679556
:10082A00BA95C9F700976105710508959B01AC0156
:10083A000A2E06945795479537952795BA95C9F77D
:0C084A00620F731F841F951FA01D0895EE
:100856000F931F93CF93DF93FB01248121FD03C0E8
:100866008FEF9FEF2CC022FF16C047815085258150
:1008760036814217530744F4A081B1819D012F5F51
:100886003F4F318320838C93278130852F5F3F4FE5
:100896003087278314C08B01EC01FB010184F285AC
:1008A600E02D0995892BE1F6D80117968D919C913B
:1008B6001897019618969C938E931797CE01DF9101
:0808C600CF911F910F910895DD
:1008CE00813041F4E0ECF0E08081826080838FEC37
:1008DE0090E002C087E690E09093C5008093C4003C
:1008EE00E2ECF0E080818B7F808380818660808364
:1008FE0080818F7C80838081877F8083E1ECF0E034
:0E090E00808188618083808180688083089565
:10091C008AB184608AB98AB188608AB98AB18061E7
:10092C008AB98AB180628AB98AB18F7B8AB98BB154
:10093C0080648BB98AB18F778AB98BB180688BB997
:10094C0084B18E7F84B985B1816085B984B18D7F86
:0A095C0084B985B1826085B9089561
:10096600AFE0B0E0E9EBF4E00C94E4040E891F89F3
:1009760086E08D831A8309838FEF9FE79F838E839B
:100986009E01255E3F4F488D598D6A8DCE01019699
:100996000E948800E885F985E00FF11F10822F96E6
:0609A600E4E00C941B05C7
:1009AC002F923F924F925F926F927F928F929F9273
:1009BC00AF92BF92CF92DF92EF92FF920F931F9361
:1009CC00CF93DF93CDB7DEB7CA1BDB0B0FB6F89412
:0809DC00DEBF0FBECDBF099480
:1009E400CF92DF92EF926B01E82EA82FCB01411535
:1009F400510531F48C199D09EF90DF90CF90089543
:100A0400FC012491A7FD20812223A1F30196A11DBD
:060A140041505109ECCF36
:100A1A002A88398848885F846E847D848C849B8484
:100A2A00AA84B984C884DF80EE80FD800C811B8192
:100A3A00AA81B981CE0FD11D0FB6F894DEBF0FBEC1
:060A4A00CDBFED0108958F
:100A5000CF92DF92EF92DC016A01E62E280F391F58
:100A6000A217B30751F0F6014491E7FC40814D9382
:100A70004FEFC41AD40AE40AF3CFEF90DF90CF907F
:020A80000895D7
:100A82000F931F93CF93DF93EC0104C089910E94CF
:100A92005505B8018B0101501109672BB9F7DF9198
:080AA200CF911F910F910895FF
:0E0AAA009091C00095FFFCCF8093C600089588
:0E0AB800DC0101C06D9341505040E0F70895FD
:040AC6000C9400008C
:00000001FF
