:100000000C9437000C94A0010C94A0010C94A00156
:100010000C94A0010C94A0010C94A0010C94A001DC
:100020000C94A0010C94A0010C94A0010C94A001CC
:100030000C94A0010C94A0010C94A0010C94A001BC
:100040000C94A0010C94A0010C94A0010C94A001AC
:100050000C94A0010C94A0010C94A0010C94A0019C
:100060000C94A0010C94A001010001018000112456
:100070001FBECFEFD8E0DEBFCDBFE8E6F0E040E046
:1000800017C0B591A59135912591059107FD0CC03B
:1000900095918591EF01F92FE82F05900D92A21708
:1000A000B307D9F7FE0104C01D92A217B307E1F709
:1000B000ED36F40731F70E9432010C945F00F8949A
:0200C000FFCF70
:1000C2003738392F343536583132332D63303D2BA2
:1000D20030E020E063C08BB184608BB98BB1886063
:1000E2008BB98BB180618BB98BB180628BB92130B6
:1000F20051F028F0223059F0233069F00FC08BB153
:100102008B7F8BB90BC08BB1877F8BB907C08BB14B
:100112008F7E8BB903C08BB18F7D8BB98FEC97E04B
:100122000197F1F700C0000083B181FB662760F9F7
:1001320070E0DB01AA0FBB1FAA0FBB1FAA0FBB1FD8
:1001420083B1E82FE170F0E0AF01440F551F440F77
:10015200551F99B1991F9927991F892F90E0880FF0
:10016200991F99B14A2B842B96FB992790F9892BD9
:100172008B3061F01CF4873059F004C08D3021F0CF
:100182008E3041F03FEF07C031E005C032E003C0DE
:1001920033E001C030E03F3F21F42F5F243008F408
:1001A2009ACF3F3FA9F0822F90E0880F991F880FC6
:1001B200991F830F911D37FD9A95092E000CAA0BEA
:1001C2008E539F4FAF4FFC018491A7FD808108950C
:0401D2008FEF08950E
:1001D60095B19B7F95B995B1977F95B995B19F7E5E
:1001E60095B995B19F7D95B998B19E7F98B998B10B
:1001F6009D7F98B998B19B7F98B998B1977F98B928
:1002060080FF03C095B1946095B981FF03C095B195
:10021600986095B982FF03C095B1906195B983FF47
:1002260003C085B1806285B9623069F018F4613027
:1002360031F00895633059F0643069F0089588B15B
:10024600816088B9089588B1826088B9089588B1B7
:0E025600846088B9089588B1886088B90895D9
:100264000E9462010E9487010E946900809300013C
:10027400813321F461E081E00E94EB008091000170
:10028400823321F462E082E00E94EB00809100015D
:10029400833321F463E083E00E94EB00809100014A
:1002A400843321F464E084E00E94EB002FEF80E7C4
:1002B40092E0215080409040E1F700C00000D4CF8C
:1002C4008AB184608AB98AB188608AB98AB1806146
:1002D4008AB98AB180628AB98AB18F7B8AB98BB1B3
:1002E40080648BB98AB18F778AB98BB180688BB9F6
:1002F40084B18E7F84B985B1816085B984B18D7FE5
:0A03040084B985B1826085B90895BF
:10030E0084B1846084B984B1886084B984B1806119
:10031E0084B984B1806284B987B1816087B987B1AD
:10032E00826087B987B1846087B987B1886087B9E1
:02033E00089520
:040340000C94000019
:00000001FF
