:100000000C9437000C942F030C942F030C942F03A3
:100010000C942F030C942F030C942F030C942F0398
:100020000C942F030C942F030C942F030C942F0388
:100030000C942F030C942F030C942F030C942F0378
:100040000C942F030C942F030C94DA010C942F03BF
:100050000C942F030C942F030C942F030C942F0358
:100060000C942F030C942F030100016D80001124C8
:100070001FBECFEFD8E0DEBFCDBFE8E6F0E040E046
:1000800017C0B591A59135912591059107FD0CC03B
:1000900095918591EF01F92FE82F05900D92A21708
:1000A000B307D9F7FE0104C01D92A217B307E1F709
:1000B000ED36F40731F70E9438020C945F00F89493
:0200C000FFCF70
:1000C200434F4E46494755524143494F4E205541B1
:0600D2005254300D0A003B
:1000D8002F923F924F925F926F927F928F92AF9240
:1000E800BF92CF92DF92EF920F931F93CF93DF933C
:1000F80000D000D000D0CDB7DEB73B01882E5A0122
:1001080019014115510521F0FA0160837183828339
:100118002114310429F0C1010297839708F01AC10C
:10012800E82C6301FFEFCF1ADF0AEF0AF3011491FD
:1001380087FC1081812F90E00E940A034C2D3D2DF1
:100148002E2D892B19F036018E2CEACF1D3269F439
:10015800E82C630152E0C50ED11CE11CE42FF32FFB
:10016800149127FD108101E00EC01B3259F4E82CD0
:10017800630182E0C80ED11CE11CE42FF32F149117
:1001880027FD108100E02114310409F190E12916BE
:10019800310429F43FC010E32114310421F1F8E0BF
:1001A8002F16310401F154F432E02316310421F5FD
:1001B800412C512C612C50E4752E4BC04AE024167A
:1001C800310439F050E125163104B1F43DC0103343
:1001D80019F13AE0232E312C4CEC442E542C642C8B
:1001E8004CE0742E36C098E0292E312C412C512C2D
:1001F800612C20E1722E2DC060E070E080E090E874
:100208009101032C000C440B550B0E94910229010B
:100218003A011FC01033C1F4F6018491E7FC8081D4
:100228008F7D883509F0B7CFAE2DC6010196A11D87
:10023800FC011491A7FD1081E2E0CE0ED11CE11C57
:10024800026060E1262E312C412C512C612C88E073
:10025800782EA0E060E070E0CB019101032C000C47
:10026800440B550B29833A834B835C83E0EDE10F04
:10027800EA3060F02FEB210F2A3110F4E9EC05C0C9
:100288002FE9210F2A3150F5E9EAE10F2E2F30E04E
:10029800221533051CF5A7FD18C046165706680633
:1002A800790680F029813A814B815C810E94E002C5
:1002B8006E0F711D811D911D61307105810530E83A
:1002C800930710F0AFEF01C0A1E0F6011491E7FC2D
:1002D80010814FEFC41AD40AE40AC8CF202F217026
:1002E800A114B104B1F0AA2349F051E0C51AD1080C
:1002F800E108F501C082D182E2820BC001FF1DC076
:10030800F2E0CF1AD108E108F501C082D182E28279
:1003180014C0A7FF12C0222329F060E070E080E03B
:1003280090E804C06FEF7FEF8FEF9FE722E230E0A5
:1003380030936C0120936B0109C0222381F09095C2
:100348008095709561957F4F8F4F9F4F462F372F20
:10035800282F12C040E030E020E090E00DC097FF69
:10036800F5CF82E290E090936C0180936B016FEF80
:100378007FEF8FEF9FE7EACF642F732F822F2696A8
:100388000FB6F894DEBF0FBECDBFDF91CF911F919E
:100398000F91EF90DF90CF90BF90AF908F907F90AC
:0C03A8006F905F904F903F902F90089551
:1003B4001F920F920FB60F9211242F933F934F93D6
:1003C4005F936F937F938F939F93AF93BF93EF93B9
:1003D400FF932091C60020933801809136019091BB
:1003E4003701FC01EC5FFE4F2083019690933701A7
:1003F400809336012A3011F02D3039F583B18062B3
:1004040083B96091360170913701FB01EC5FFE4FB7
:100414008AE0808384E091E00E94CC0264E071E091
:1004240080E80E9428039093010180930001409189
:1004340036015091370160E070E084E091E00E9461
:1004440021031092370110923601FF91EF91BF9171
:10045400AF919F918F917F916F915F914F913F9158
:0C0464002F910F900FBE0F901F90189565
:1004700040E855E260E070E081E00E946A02789412
:1004800026E130E042EC50E060E089E391E00E9438
:10049000B30285E190E0909303018093020165E14E
:1004A00070E089E391E00E94CC0284B1806284B95B
:1004B00084B1806184B980910001909101018536F9
:1004C000910520F085B1806185B9F5CF85B18F7E2A
:0404D00085B9F1CF2A
:1004D400813041F4E0ECF0E08081826080838FEC35
:1004E40090E002C087E690E09093C5008093C4003A
:1004F400E2ECF0E080818B7F808380818660808362
:1005040080818F7C80838081877F8083E1ECF0E031
:0E051400808188618083808180688083089563
:10052200A1E21A2EAA1BBB1BFD010DC0AA1FBB1FF5
:10053200EE1FFF1FA217B307E407F50720F0A21B67
:10054200B30BE40BF50B661F771F881F991F1A94D4
:1005520069F760957095809590959B01AC01BD01FE
:04056200CF01089528
:10056600CF92DF92EF92DC016A01E62E280F391F47
:10057600A217B30751F0F6014491E7FC40814D9371
:100586004FEFC41AD40AE40AF3CFEF90DF90CF906E
:020596000895C6
:100598000F931F93CF93DF93EC0104C089910E94BE
:1005A8001303B8018B0101501109672BB9F7DF91CB
:0805B800CF911F910F910895EE
:1005C000DB018F939F930E94FF02BF91AF91A29F87
:1005D000800D911DA39F900DB29F900D1124089541
:1005E000A29FB001B39FC001A39F700D811D112474
:0E05F000911DB29F700D811D1124911D089563
:1005FE000E94F002A59F900DB49F900DA49F800DB8
:06060E00911D1124089566
:1006140091110C942C03803219F089508550C8F73D
:02062400089537
:0E0626009091C00095FFFCCF8093C600089510
:0E0634002AE030E040E050E00E946C000895A3
:0E064200DC0101C06D9341505040E0F7089577
:080650000E941A03CB0108957A
:0606580099278827089590
:04065E000C940000F8
:00000001FF
