:100000000C9437000C94CE020C94CE020C94CE02C9
:100010000C94CE020C94CE020C94CE020C94CE0220
:100020000C94CE020C94CE020C94CE020C94CE0210
:100030000C94CE020C94CE020C94CE020C94CE0200
:100040000C94CE020C94CE020C94CE020C94CE02F0
:100050000C94CE020C94CE020C94CE020C94CE02E0
:100060000C94CE020C94CE020100010280001124F7
:100070001FBECFEFD8E0DEBFCDBFE8E6F0E040E046
:1000800017C0B591A59135912591059107FD0CC03B
:1000900095918591EF01F92FE82F05900D92A21708
:1000A000B307D9F7FE0104C01D92A217B307E1F709
:1000B000ED36F40731F70E9461000C945F00F8946C
:0200C000FFCF70
:1000C20084B1896084B985B1867F85B90E949A021C
:1000D2000E94E60185B1807F85B985B1816085B9CD
:1000E20081E00E9473029093010180930001BC01A0
:1000F20080E090E00E94A90123EC35EF4FE152E449
:100102000E94C70220E030E048EC52E40E94C7029D
:1001120020E030EC4FE754E40E94C3020E94220226
:10012200C8E8D0E0798368832FEF83ED90E3215014
:1001320080409040E1F700C0000085B18E7F85B914
:1001420085B1886085B981E00E94730290930101B4
:1001520080930001BC0180E090E00E94A90123ECA1
:1001620035EF4FE152E40E94C70220E030E048EC54
:1001720052E40E94C70220E030EC4FE754E40E94B0
:10018200C3020E942202798368832FEF83ED90E3FA
:0E019200215080409040E1F700C000009BCF5C
:1001A00010C00E94AF0258F00E94A80240F029F44B
:1001B0005F3F29F00C94BD0251110C94B7020C94CE
:1001C000CB020E94510268F39923B1F3552391F3B6
:1001D000951B550BBB27AA2762177307840738F0B6
:1001E0009F5F5F4F220F331F441FAA1FA9F335D013
:1001F0000E2E3AF0E0E832D091505040E695001CC7
:10020000CAF72BD0FE2F29D0660F771F881FBB1F80
:10021000261737074807AB07B0E809F0BB0B802D5E
:10022000BF01FF2793585F4F3AF09E3F510578F08A
:100230000C94BD020C94B7025F3FE4F3983ED4F3F4
:10024000869577956795B795F7959F5FC9F7880F5E
:10025000911D9695879597F90895E1E0660F771FB0
:10026000881FBB1F621773078407BA0720F0621B41
:0E027000730B840BBA0BEE1F88F7E095089510
:10027E000FC00E94A80238F00E94AF0220F0952312
:10028E0011F00C94BD020C94CB0211240C94B70205
:10029E000E94510270F3959FC1F3950F50E0551FC8
:1002AE00629FF001729FBB27F00DB11D639FAA27BD
:1002BE00F00DB11DAA1F649F6627B00DA11D661F0C
:1002CE00829F2227B00DA11D621F739FB00DA11D2D
:1002DE00621F839FA00D611D221F749F3327A00DE7
:1002EE00611D231F849F600D211D822F762F6A2F83
:1002FE0011249F5750409AF0F1F088234AF0EE0FE8
:10030E00FF1FBB1F661F771F881F91505040A9F714
:10031E009E3F510580F00C94BD020C94B7025F3FD6
:10032E00E4F3983ED4F3869577956795B795F79550
:10033E00E7959F5FC1F7FE2B880F911D96958795C8
:04034E0097F908957E
:10035200E89409C097FB3EF490958095709561955D
:100362007F4F8F4F9F4F9923A9F0F92F96E9BB2713
:100372009395F695879577956795B795F111F8CF8F
:10038200FAF4BB0F11F460FF1BC06F5F7F4F8F4FFA
:100392009F4F16C0882311F096E911C0772321F0F0
:1003A2009EE8872F762F05C0662371F096E8862F88
:1003B20070E060E02AF09A95660F771F881FDAF7DF
:0A03C200880F9695879597F9089526
:1003CC0084B1826084B910928500109284008FE908
:1003DC009FE09093870080938600E0E8F0E080E84F
:1003EC008083808182608083E1E8F0E088E1808313
:1003FC00808181608083609100017091010180E0B7
:10040C0090E00E94A90123EC35EF4FE152E40E94E9
:10041C00C70220E030E048EC52E40E94C70220E022
:10042C0030EC4FE754E40E94C3020E942202709306
:08043C00890060938800089517
:100444000E94590288F09F5798F0B92F9927B75105
:10045400B0F0E1F0660F771F881F991F1AF0BA9564
:10046400C9F714C0B13091F00E94B602B1E008950A
:100474000C94B602672F782F8827B85F39F0B93FFC
:10048400CCF3869577956795B395D9F73EF4909517
:0E0494008095709561957F4F8F4F9F4F089513
:1004A20057FD9058440F551F59F05F3F71F0479523
:1004B200880F97FB991F61F09F3F79F08795089508
:1004C200121613061406551FF2CF4695F1DF08C027
:1004D200161617061806991FF1CF86957105610544
:0404E20008940895DD
:1004E600ECE7F0E09081987F90839081892B808360
:1004F600EAE7F0E080818064808380917A0086FD5F
:0C050600FCCF809178009091790008955E
:10051200092E0394000C11F4882352F0BB0F40F40F
:10052200BF2B11F460FF04C06F5F7F4F8F4F9F4F4F
:0205320008952A
:10053400EAE7F0E0808186608083ACE7B0E08C91EC
:0C0544008F738C93808180688083089501
:0E05500000240A9416161706180609060895C8
:0E055E0000240A9412161306140605060895CA
:0E056C00E894BB2766277727CB0197F90895FF
:0C057A0097F99F6780E870E060E008954A
:080586000E94D0000C948902D0
:08058E000E943F010C94890258
:060596009FEF80EC0895C8
:04059C000C940000BB
:00000001FF
