:100000000C9434000C9485000C9485000C948500AD
:100010000C9485000C9485000C9485000C9485004C
:100020000C9485000C9485000C9485000C9485003C
:100030000C9485000C9485000C9485000C9485002C
:100040000C9485000C9485000C9485000C9485001C
:100050000C9485000C9485000C9485000C9485000C
:100060000C9485000C94850011241FBECFEFD8E0BE
:10007000DEBFCDBF0E9440000C943E00F894FFCF3D
:100080008AB1807F8AB984B18F6084B984B18F616D
:1000900084B9489909C085B1886085B987EA91E635
:1000A0000197F1F700C00000499912C085B18E7F19
:1000B00085B985B18D7F85B985B1846085B98FE4B7
:1000C00093EC0197F1F700C0000085B18B7F85B9F3
:1000D0004A990FC085B1826085B985B1877F85B99E
:1000E00085B1806185B987EA91E60197F1F700C093
:1000F00000004B99CECF85B1826085B985B1807EF5
:0A01000085B985B1816085B9C4CFCF
:04010A000C94000051
:00000001FF
