:100000000C94B1000C94140A0C94140A0C94140A65
:100010000C94140A0C94140A0C94140A0C94140AE8
:100020000C94140A0C94140A0C94140A0C94140AD8
:100030000C94140A0C94140A0C94140A0C94140AC8
:100040000C94140A0C94140A0C94140A0C94140AB8
:100050000C94140A0C94140A0C94140A0C94140AA8
:100060000C94140A0C94140A00407A10F35A00A05D
:10007000724E18090010A5D4E80000E87648170071
:1000800000E40B54020000CA9A3B000000E1F505B1
:10009000000080969800000040420F000000A086FB
:1000A00001000000102700000000E803000000002D
:1000B0006400000000000A000000000001000000D1
:1000C00000002C76D888DC674F0823DFC1DFAE59EB
:1000D000E1B1B796E5E3E453C63AE651997696E87E
:1000E000E6C28426EB898C9B62ED407C6FFCEFBC02
:1000F0009C9F40F2BAA56FA5F490055A2AF75C932D
:100100006B6CF9676DC11BFCE0E40D47FEF520E662
:10011000B500D0ED902E0300943577050080841E45
:10012000080000204E0A000000C80C333333330FA0
:10013000986E12831141EF8D2114893BE65516CF3D
:10014000FEE6DB18D1844B381BF77C1D901DA4BB49
:10015000E424203284725E228100C9F124ECA1E5FE
:100160003D2711241FBECFEFD8E0DEBFCDBF0E94D8
:0A0170001D060C94BB00F894FFCFAD
:10017A002A2A2A564F4C54494D4554524F2044433B
:10018A002A2A2A002A2A2A302D3230562A2A2A00D6
:10019A002020202020202020202020202020202055
:1001AA00202020202000414443312D3E2575004166
:0C01BA004443312D3E252E346620760093
:1001C600110A041B1111110E10101010101010102E
:1001D60018181818181818181C1C1C1C1C1C1C1C79
:1001E6001E1E1E1E1E1E1E1E1F1F1F1F1F1F1F1F21
:1001F60000000000000000000000000000000000F9
:08020600696E66006E616E0076
:10020E00A4E1B0E0EDE0F1E00C94FE086C011A01FF
:10021E00462E5901FC0110861782848181FF62C32C
:10022E00CE0101969D878C87A0E88A8B9B8BAC8B29
:10023E00F101849147FC8081882309F44FC3442D3A
:10024E0091012F5F3F4F4F4F853219F01901442E08
:10025E000AC0F901849147FD808192E0290E311C7C
:10026E00411C853249F4B60190E00E942A08BF86EF
:10027E00AE86AE84BF84DCCF10E0F12C00E00032FD
:10028E00A0F48B3269F030F4803259F0833269F485
:10029E0000612CC08D3239F0803339F4016026C0F4
:1002AE000260046023C0086021C007FD29C090EDE4
:1002BE00980F9A3078F406FF06C0AAE01A9F900DA8
:1002CE001124192F13C0EAE0FE9E900D1124F92E71
:1002DE0000620CC08E3221F406FD00C3006406C01D
:1002EE008C3611F4006802C0883651F4F101849105
:1002FE0047FC8081FFEF2F1A3F0A4F0A8111BFCFB3
:10030E009BEB980F933018F40061805E06C09BE95A
:10031E00980F933008F066C10F7E06FF16E00F733C
:10032E00702E853621F4202F2064722E08C086365A
:10033E0021F4802F8068782E02C01111115077FEA3
:10034E0007C01C3350F4EE24E394E10E27E00BC0FB
:10035E00183038F027E017E005C027E06CE3E62EF2
:10036E0002C0212FE12CF5013496FF87EE87F501AF
:10037E0060817181828193810E2DAE014F5F5F4F3F
:10038E000E94A9045C01598050FE02C053FE06C0B3
:10039E0071FC06C072FE06C000E205C00DE203C08D
:1003AE000BE201C000E0852D8C7019F0011173C2B3
:1003BE00BEC277FE0FC0EA0C54FE04C08A818133A0
:1003CE0009F4EA941E1474F528E02E1578F538E039
:1003DE00E32E2CC076FC2AC0812F90E08A159B0557
:1003EE009CF08CEFA8168FEFB80674F0972D9068DE
:1003FE00792E0AC0E2E0F0E0EC0FFD1FE10FF11DD7
:10040E008081803319F411501111F4CF77FE0EC094
:10041E00EE24E394E10E812F90E0A816B9062CF499
:10042E001A1904C0EE24E39401C010E077FE06C052
:10043E001A141B0434F4C501019605C085E090E042
:10044E0002C081E090E001110196112331F0212FBD
:10045E0030E02F5F3F4F820F931F2F2D30E082171A
:10046E00930714F4F81A01C0F12C872D897049F402
:10047E00FF2039F0B60180E290E00E942A08FA943B
:10048E00F7CF002329F0B601802F90E00E942A08B2
:10049E0073FC09C0FF2039F0B60180E390E00E94A2
:1004AE002A08FA94F7CF77FE49C03501B7FE02C08D
:1004BE00612C712CC5018619970988248394912C7F
:1004CE008C0E9D1E880E991EF501EE19F109F98B01
:1004DE00E88B012F10E0119501951109FFEF6F16B2
:1004EE007F0629F4B6018EE290E00E942A08A61437
:1004FE00B70444F088899989861597051CF4F40190
:10050E00818101C080E3F1E06F1A71082FEF821A2A
:10051E00920A601671062CF0B60190E00E942A082D
:10052E00DDCFA614B70439F49A81963318F49533B7
:10053E0011F454FE81E3B60190E051C08A818133FB
:10054E0019F0952D9F7E592EB60190E00E942A0833
:10055E00111105C074FC1CC085E690E01BC0B601ED
:10056E008EE290E00E942A0802E0010F82E011E084
:10057E00180FE1E0F0E0EC0FFD1FE80FF11D808198
:10058E00B60190E00E942A08812F1013F0CFE2CF1F
:10059E0085E490E0B6010E942A08B7FC05C0A114BC
:1005AE00B10439F454FE05C0B194A194B1088DE2A2
:1005BE0001C08BE2B60190E00E942A0880E3EAE0D7
:1005CE00AE16B1042CF08F5FAAE0AA1AB108F7CFCD
:1005DE00B60190E00E942A08B601C501C0960E949D
:1005EE002A0872C1833631F0833791F0833509F0D2
:1005FE005DC024C0C50102969F878E87F50180815C
:10060E0089836A887B888C88AA24A394B12C14C011
:10061E00C50103969F878E87F50160807180828069
:10062E0006FF03C0412F50E002C04FEF5FEF882D51
:10063E00B3010E9435095C010F7715C0C501039601
:10064E009F878E87F50160807180828006FF03C0D0
:10065E00412F50E002C04FEF5FEF882DB3010E9493
:10066E0035095C01006803FD1DC08F2D90E0A816B2
:10067E00B906C0F4B60180E290E00E942A08FA940E
:10068E00F4CFF301849187FC8081FFEF6F1A7F0A0C
:10069E008F0AB60190E00E942A08F110FA9421E028
:1006AE00A21AB108A114B10461F70EC1843611F07B
:1006BE00893679F5C50107FF09C004969F878E8795
:1006CE00F50160817181828193810AC002969F87B4
:1006DE008E87F50160817181072E000C880B990BB6
:1006EE000F76E02E97FF0AC09095809570956195D4
:1006FE007F4F8F4F9F4FF02FF068EF2E2AE030E0A4
:10070E00AE014F5F5F4F0E948F07A82E2C85A21A55
:10071E004BC0853729F40F7EE02E2AE030E025C04D
:10072E00902F997FE92E8F36C1F018F4883579F025
:10073E00D5C0803719F0883721F0D0C0A92FA0611D
:10074E00EA2EE4FE0DC0EE2DE460EE2E09C004FF8D
:10075E000AC0F92FF660EF2E06C028E030E005C083
:10076E0020E130E002C020E132E0C501E7FE09C021
:10077E0004969F878E87F5016081718182819381B6
:10078E0008C002969F878E87F5016081718180E097
:10079E0090E0AE014F5F5F4F0E948F07A82EFC8541
:1007AE00AF1A2E2D2F77E22EE6FE0BC00E2D0E7FEA
:1007BE00A11650F4E4FE0AC0E2FC08C00E2D0E7E17
:1007CE0005C0BA2C0E2D03C0BA2C01C0B12E04FFE9
:1007DE000DC0FE01EA0DF11D8081803311F4097EFA
:1007EE0009C002FF06C0B394B39404C0802F86786C
:1007FE0009F0B39403FD11C000FF06C0BF1488F4C6
:10080E00FA0C1F2D1B190EC0BF1460F4B60180E246
:10081E0090E00E942A08B394F7CFBF1418F4FB1887
:10082E0002C01A2DF12C04FF10C0B60180E390E037
:10083E000E942A0802FF17C001FD03C088E790E05E
:10084E0002C088E590E0B6010CC0802F867859F082
:10085E0001FF02C08BE201C080E207FD8DE2B6010E
:10086E0090E00E942A08A11638F4B60180E390E0C9
:10087E000E942A081150F7CFAA94E1E0F0E0EC0FA5
:10088E00FD1FEA0DF11D8081B60190E00E942A083D
:10089E00A110F2CF19C0F4E0FF1580F584E0F81A2C
:1008AE0073FE23C001112BC053FE2FC05AE0852EBC
:1008BE0052E0952E50E0A52E072D0071F401849183
:1008CE00A7FC8081811128C0FF2009F4D2CCB6018B
:1008DE0080E290E00E942A08FA94F6CFF601878112
:1008EE0090852CC08FEF9FEF29C0B60180E290E07B
:1008FE000E942A08FA94F110F8CFD4CFF12CB60149
:10090E00802F90E00E942A08CFCF46E0842E42E04E
:10091E00942E40E0A42ED0CF01118052B60190E06B
:10092E000E942A08FFEF8F1A9F0AAF0AC7CF23E053
:10093E002F1510F483E0B3CFF12CB6CF6496E2E11D
:04094E000C941A09E2
:10095200283008F027E03327DA01990F311D87FD8F
:10096200916000966105710539F432602E5F3D9306
:1009720030E32A95E1F708959F3F30F08038710502
:10098200610509F03C5F3C5F3D93913008F080685F
:10099200911DDF93CF931F930F93FF92EF92192F25
:1009A200987F9695E92F96959695E90FFF27EE5336
:1009B200FF4F99273327EE24FF24A701E701059073
:1009C2000894079428F4360FE71EF81E491F511D9C
:1009D200660F771F881F991F0694A1F70590079449
:1009E20028F4E70EF81E491F561FC11D770F881FF6
:1009F200991F661F0694A1F70590079428F4F80E34
:100A0200491F561FC71FD11D880F991F661F771FC9
:100A12000694A1F70590079420F4490F561FC71FAB
:100A2200D81F990F661F771F881F0694A9F7849114
:100A32001095177041F0D695C79557954795F7943D
:100A4200E7941A95C1F7E8E6F0E0689415901591DD
:100A520035916591959105907FE27395E118F10AC0
:100A6200430B560BC90BD009C0F7E10CF11E431F13
:100A7200561FC91FD01D7EF4703311F48A95E6CF3C
:100A8200E894015030F0080F0AF40027021708F426
:100A9200202F2395022F7A3328F079E37D932A952C
:100AA200E9F710C07D932A9589F606949795679584
:100AB200379517951794E118F10A430B560BC90B9A
:100AC200D00998F023957E9173957A3308F070E3FC
:100AD2007C932013B8F77E9170617D9330F08395FB
:100AE20071E37D9370E32A95E1F71124EF90FF9073
:100AF2000F911F91CF91DF91992787FD90950895CE
:100B0200CF92DF92EF92CF930E9494082FE389E174
:100B120091E0215080409040E1F700C0000085B193
:100B2200846085B985B1886085B985B18F7E85B9C4
:100B320085B18F7D85B98FE295E70197F1F700C006
:100B4200000085B1846085B985B1886085B985B1B9
:100B52008F7E85B985B18F7D85B90E94C2098FEDDF
:100B62009EE20197F1F700C0000085B1846085B96B
:100B720085B1886085B985B18F7E85B985B18F7D54
:100B820085B90E94C2098FEC97E00197F1F700C086
:100B9200000085B1846085B985B1886085B985B169
:100BA2008F7E85B985B18F7D85B90E94C2098FEC90
:100BB20097E00197F1F700C0000085B18B7F85B9FE
:100BC20085B1886085B985B18F7E85B985B18F7D04
:100BD20085B90E94C2098FEC97E00197F1F700C036
:100BE200000088E20E94DC098CE00E94DC0986E0B9
:100BF2000E94DC0980E40E94DC090F2EF6ECCF2E65
:100C0200F1E0DF2EF0E0EF2EF02DC0E00BC0F60198
:100C12008491E7FC80810E94FD09CF5F2FEFC21A09
:100C2200D20AE20AC03498F380E80E94DC09CF912C
:080C3200EF90DF90CF900895D0
:100C3A00CF93DF93CDB7DEB764970FB6F894DEBFD4
:100C4A000FBECDBF0E9481050E94B40924E130E0A5
:100C5A004AE751E060E0CE0101960E94500960E047
:100C6A0080E00E947F09CE0101960E94CF092CE004
:100C7A0030E04EE851E060E0CE0101960E94500952
:100C8A0060E081E00E947F09CE0101960E94CF09AF
:100C9A0081E00E9469097C01BC0180E090E00E9429
:100CAA00ED0720E030E040EA51E40E940D0A20E01E
:100CBA0030EC4FE754E40E94090AD62EC72EB82E0C
:100CCA00A92E26E130E04AE951E060E08E010F5F8B
:100CDA001F4FC8010E94500960E082E00E947F090C
:100CEA00C8010E94CF0960E083E00E947F09C80121
:100CFA000E94CF09FF92EF9280EB91E0A0E0AF93C0
:100D0A009F938F931F930F930E94B90860E082E02C
:100D1A000E947F09C8010E94CF09AF92BF92CF9269
:100D2A00DF9289EB91E0A0E0AF939F938F931F939B
:100D3A000F930E94B90860E083E00E947F09C8010E
:100D4A000E94CF092FEF83EC99E021508040904018
:100D5A00E1F700C000000FB6F894DEBF0FBECDBFAA
:020D6A0097CF21
:100D6C0010C00E94EF0958F00E94E80940F029F4E5
:100D7C005F3F29F00C94030A51110C94F7090C9461
:100D8C00110A0E94DC0868F39923B1F3552391F3FF
:100D9C00951B550BBB27AA2762177307840738F0DE
:100DAC009F5F5F4F220F331F441FAA1FA9F335D03B
:100DBC000E2E3AF0E0E832D091505040E695001CEF
:100DCC00CAF72BD0FE2F29D0660F771F881FBB1FA9
:100DDC00261737074807AB07B0E809F0BB0B802D87
:100DEC00BF01FF2793585F4F3AF09E3F510578F0B3
:100DFC000C94030A0C94F7095F3FE4F3983ED4F388
:100E0C00869577956795B795F7959F5FC9F7880F86
:100E1C00911D9695879597F90895E1E0660F771FD8
:100E2C00881FBB1F621773078407BA0720F0621B69
:0E0E3C00730B840BBA0BEE1F88F7E095089538
:100E4A000FC00E94E80938F00E94EF0920F09523AC
:100E5A0011F00C94030A0C94110A11240C94F7094A
:100E6A000E94DC0870F3959FC1F3950F50E0551F5F
:100E7A00629FF001729FBB27F00DB11D639FAA27E5
:100E8A00F00DB11DAA1F649F6627B00DA11D661F34
:100E9A00829F2227B00DA11D621F739FB00DA11D55
:100EAA00621F839FA00D611D221F749F3327A00D0F
:100EBA00611D231F849F600D211D822F762F6A2FAB
:100ECA0011249F5750409AF0F1F088234AF0EE0F10
:100EDA00FF1FBB1F661F771F881F91505040A9F73D
:100EEA009E3F510580F00C94030A0C94F7095F3F6A
:100EFA00E4F3983ED4F3869577956795B795F79579
:100F0A00E7959F5FC1F7FE2B880F911D96958795F0
:040F1A0097F90895A6
:100F1E00FA01AA27283051F1203181F1E8946F931C
:100F2E006E7F6E5F7F4F8F4F9F4FAF4FB1E03ED0C2
:100F3E00B4E03CD0670F781F891F9A1FA11D680F60
:100F4E00791F8A1F911DA11D6A0F711D811D911D93
:100F5E00A11D20D009F468943F912AE0269F112408
:100F6E003019305D3193DEF6CF010895462F47706C
:100F7E00405D4193B3E00FD0C9F7F6CF462F4F70C7
:100F8E00405D4A3318F0495D31FD4052419302D025
:100F9E00A9F7EACFB4E0A6959795879577956795CB
:100FAE00BA95C9F700976105710508959B01AC01CB
:100FBE000A2E06945795479537952795BA95C9F7F2
:0C0FCE00620F731F841F951FA01D089563
:100FDA00E89409C097FB3EF49095809570956195C9
:100FEA007F4F8F4F9F4F9923A9F0F92F96E9BB277F
:100FFA009395F695879577956795B795F111F8CFFB
:10100A00FAF4BB0F11F460FF1BC06F5F7F4F8F4F65
:10101A009F4F16C0882311F096E911C0772321F05B
:10102A009EE8872F762F05C0662371F096E8862FF3
:10103A0070E060E02AF09A95660F771F881FDAF74A
:0A104A00880F9695879597F9089591
:101054000F931F93CF93DF93FB01248121FD03C0E2
:101064008FEF9FEF2CC022FF16C04781508525814A
:1010740036814217530744F4A081B1819D012F5F4B
:101084003F4F318320838C93278130852F5F3F4FDF
:101094003087278314C08B01EC01FB010184F285A6
:1010A400E02D0995892BE1F6D80117968D919C9135
:1010B4001897019618969C938E931797CE01DF91FB
:0810C400CF911F910F910895D7
:1010CC0095B19B7F95B925B1982F9170990F990F78
:1010DC00922B95B995B1977F95B925B181FB99273D
:1010EC0090F9990F990F990F922B95B995B19F7E05
:1010FC0095B925B182FB992790F99295907F922B07
:10110C0095B995B19F7D95B995B183FB882780F9E9
:0C111C008295880F807E892B85B908958C
:1011280084B1826084B984B1816084B984B18460F7
:1011380084B984B1886084B984B1806184B984B188
:10114800806284B985B18D7F85B985B18E7F85B977
:1011580085B18B7F85B985B1877F85B985B18F7E4C
:0A11680085B985B18F7D85B9089522
:10117200AFE0B0E0EFEBF8E00C940C090E891F89A8
:1011820086E08D831A8309838FEF9FE79F838E8387
:101192009E01255E3F4F488D598D6A8DCE01019685
:1011A2000E940701E885F985E00FF11F10822F9652
:0611B200E4E00C942809A2
:1011B80057FD9058440F551F59F05F3F71F0479500
:1011C800880F97FB991F61F09F3F79F087950895E5
:1011D800121613061406551FF2CF4695F1DF08C004
:1011E800161617061806991FF1CF86957105610521
:0411F80008940895BA
:1011FC002F923F924F925F926F927F928F929F921B
:10120C00AF92BF92CF92DF92EF92FF920F931F9308
:10121C00CF93DF93CDB7DEB7CA1BDB0B0FB6F894B9
:08122C00DEBF0FBECDBF099427
:101234002A88398848885F846E847D848C849B8462
:10124400AA84B984C884DF80EE80FD800C811B8170
:10125400AA81B981CE0FD11D0FB6F894DEBF0FBE9F
:06126400CDBFED0108956D
:10126A00CF92DF92EF926B01E82EA82FCB014115A6
:10127A00510531F48C199D09EF90DF90CF900895B4
:10128A00FC012491A7FD20812223A1F30196A11D2F
:06129A0041505109ECCFA8
:1012A000CF92DF92EF92DC016A01E62E280F391F00
:1012B000A217B30751F0F6014491E7FC40814D932A
:1012C0004FEFC41AD40AE40AF3CFEF90DF90CF9027
:0212D00008957F
:1012D200ECE7F0E09081987F90839081892B808366
:1012E200EAE7F0E080818064808380917A0086FD65
:0C12F200FCCF8091780090917900089565
:1012FE00813039F060F0823031F0833031F080E0AF
:10130E0007C080EC05C084E903C084ED01C080E80D
:08131E00860F0E94DC0908950E
:10132600092E0394000C11F4882352F0BB0F40F4ED
:10133600BF2B11F460FF04C06F5F7F4F8F4F9F4F2D
:02134600089508
:10134800CF93C82F82958F700E9466080E94C209A9
:101358008C2F8F700E9466080E94C209CF91089551
:10136800EAE7F0E0808186608083ACE7B0E08C91AA
:0C1378008F738C938081806880830895BF
:1013840085B1816085B987EE93E00197F1F700C0DC
:0A139400000085B18E7F85B9089531
:10139E00CF93DF93EC0103C00E94FD092196888153
:0A13AE008111FACFDF91CF9108956D
:1013B80095B19D7F95B90E94A4098FE697E10197A1
:0813C800F1F700C000000895D8
:0E13D00000240A94161617061806090608953A
:0E13DE0000240A94121613061406050608953C
:0E13EC00E894BB2766277727CB0197F9089571
:0C13FA0095B1926095B90E94A409089575
:0C14060097F99F6780E870E060E00895AF
:081412000E94B6060C94930938
:08141A000E9425070C949309C0
:061422009FEF80EC08952D
:041428000C94000020
:00000001FF
