:100000000C9434000C946C000C946C000C946C00F8
:100010000C946C000C946C000C946C000C946C00B0
:100020000C946C000C946C000C946C000C946C00A0
:100030000C946C000C946C000C946C000C946C0090
:100040000C946C000C946C000C946C000C946C0080
:100050000C946C000C946C000C946C000C946C0070
:100060000C946C000C946C0011241FBECFEFD8E0F0
:10007000DEBFCDBF0E945D000C943E00F894FFCF20
:1000800084B1846084B910928500109284008FEF4F
:1000900091E09093870080938600E0E8F0E0808113
:1000A00080628083808182608083E1E8F0E088E183
:0A00B00080838081826080830895C0
:1000BA0084B1836084B985B1816085B90E944000AA
:0E00CA008FEF90E090938B0080938A00FFCF21
:0400D8000C94000084
:00000001FF
