:100000000C9437000C94DB060C94DB060C94DB0696
:100010000C94DB060C94DB060C94DB060C94DB06DC
:100020000C94DB060C94DB060C94DB060C94DB06CC
:100030000C94DB060C94DB060C94DB060C94DB06BC
:100040000C94DB060C94DB060C94DB060C94DB06AC
:100050000C94DB060C94DB060C94DB060C94DB069C
:100060000C94DB060C94DB060100050080001124D3
:100070001FBECFEFD8E0DEBFCDBFE8E6F0E040E046
:1000800017C0B591A59135912591059107FD0CC03B
:1000900095918591EF01F92FE82F05900D92A21708
:1000A000B307D9F7FE0104C01D92A217B307E1F709
:1000B000ED36F40731F70E94BF040C945F00F8940A
:0200C000FFCF70
:1000C2002F923F924F925F926F927F928F929F9266
:1000D200AF92BF92CF92DF92EF92FF920F931F9354
:1000E200CF93DF93CDB7DEB761970FB6F894DEBF3B
:1000F2000FBECDBF8B836C834D832E830F83E88627
:100102002C2C261770F4BE016A5F7F4FCE01049635
:100112000E94C506BE016B5F7F4FCE0103960E940F
:10012200C5069E818885891770F4BE016A5F7F4F7C
:10013200CE0108960E94C506BE016B5F7F4FCE01BD
:1001420007960E94C5069C818E81891770F4BE01B4
:100152006A5F7F4FCE0104960E94C506BE016B5FA7
:100162007F4FCE0103960E94C5061C81A8851A13F3
:100172001CC08B818A8389839D81981710F499838F
:1001820003C0891708F49A838F819981891710F423
:10019200898304C09A81981708F48A83222D412FFB
:1001A2006A8189810E946D06D4C08D8190E06B8145
:1001B20070E09C01261B370B3D872C870E81402F58
:1001C20050E0E12FF0E09A012E1B3F0B3F872E8774
:1001D2002F8130E05901A61AB70A6A2F70E04B014D
:1001E2008E1A9F0AF901E81BF90BFB87EA879B012C
:1001F200241B350B398B288BA0130150C12CD12C19
:100202007601412C512C32012986202E3CC0C3019B
:10021200B201EE85FF859F01FF0F440B550B0E9433
:1002220056063B80032D020F0983C701B6019401D4
:10023200092C000C440B550B0E945606320E3A82D2
:100242002C853D85C901330FAA0BBB0B480E591EE5
:100252006A1E7B1EC5010B2C000CAA0BBB0BC80E21
:10026200D91EEA1EFB1E301638F4BE016E5F7F4FA8
:10027200CE0101960E94C5062985412F6A81898196
:100282000E946D061F5F211610F6812F90E02E81CD
:10029200AC01421B51096A857B85649F9001659F71
:1002A200300D749F300D11246901330FEE08FF08E1
:1002B2002C81821B9109A89E2001A99E500CB89EF8
:1002C200500C1124052C000C660877082888398800
:1002D2003BC0C701B6019101032C000C440B550B26
:1002E2000E9456060D81020F0983C301B2019401D7
:1002F200092C000C440B550B0E9456068B81280FCB
:100302002A83EA85FB85CF01FF0FAA0BBB0BC80E20
:10031200D91EEA1EFB1EC5010B2C000CAA0BBB0B3F
:10032200480E591E6A1E7B1E201738F4BE016E5FEE
:100332007F4FCE0101960E94C5062985412F6A8111
:1003420089810E946D061F5F8885811710F60E94C1
:10035200F90461960FB6F894DEBF0FBECDBFDF91F0
:10036200CF911F910F91FF90EF90DF90CF90BF90B0
:10037200AF909F908F907F906F905F904F903F9043
:040382002F9008951B
:100386000E943D060E94BB062FEF83EC99E02150A8
:1003960080409040E1F700C000000E94210660E026
:1003A60070E08EEA90E00E94980660E070E080E0DF
:1003B60090E00E94980660E070E080E190E00E9484
:1003C600980660E070E080E490E00E94980660E0A5
:1003D60070E080EB90E00E94980660E070E081E8B3
:1003E60090E00E94980660E070E08FEF90E00E9437
:1003F600980660E070E081EA90E00E94980660E06E
:1004060070E086EA90E00E94980660E070E088EA74
:1004160090E00E94980660E070E08FE390E00E9412
:10042600980660E070E088EC90E00E94980660E034
:1004360070E083ED90E00E94980660E070E080E056
:1004460090E00E94980660E070E085ED90E00E94E2
:10045600980660E070E080E890E00E94980660E010
:1004660070E089ED90E00E94980660E070E081EF10
:1004760090E00E94980660E070E08AED90E00E94AD
:10048600980660E070E082E190E00E94980660E0E5
:1004960070E08BED90E00E94980660E070E080E3EB
:1004A60090E00E94980660E070E08DE890E00E947F
:1004B600980660E070E084E190E00E94980660E0B3
:0C04C60070E08FEA90E00E949806089514
:1004D2002F923F924F925F926F927F928F929F9252
:1004E200AF92BF92CF92DF92EF92FF920F931F9340
:1004F200CF93DF9300D000D01F92CDB7DEB7098330
:10050200442E512CC82ED12C4C185D08622E712C11
:10051200A62EB12C6A187B08141415045CF0411441
:10052200510469F05194419451088FEF9FEF9B83DE
:100532008A8307C081E090E09B838A8302C01B828A
:100542001A821614170454F06114710459F071944C
:100552006194710822242A94322C06C02224239406
:10056200312C02C0212C312C641475041CF45D82E0
:100572004C8202C07D826C82E12CF12C00E010E002
:10058200812C912C20C049816A2D8C2D0E9431052D
:10059200040D151DE60CF71C8C819D8180179107B7
:1005A20034F4081B190B8A819B81C80ED91E8C81D9
:1005B2009D818E159F0524F4E81AF90AA20CB31C3A
:1005C2009FEF891A990A8C819D8101968815990558
:1005D200D0F60E94F9040F900F900F900F900F9099
:1005E200DF91CF911F910F91FF90EF90DF90CF900D
:1005F200BF90AF909F908F907F906F905F904F9041
:060602003F902F900895C7
:100608008F929F92AF92BF92CF92DF92EF92FF921A
:100618000F931F93CF93DF93A82EB62E142FC22EBD
:10062800D12CC601880F991F23E030E04901881AB0
:10063800990AE12CF12C2CC0012F2C2F4E2D6B2D5B
:100648008A2D0E94FB03219601C0E701CC16DD0626
:100658009CF799205CF4C701880F991F880F991F90
:10066800880E991E86E0880E911C0FC0C7018C1950
:100678009D09880F991F880F991F880E991E8AE077
:10068800880E911C81E0C81AD1088FEFE81AF80A81
:10069800CE14DF04D4F60E94F904DF91CF911F91A4
:1006A8000F91FF90EF90DF90CF90BF90AF909F9009
:0406B8008F90089582
:1006BC00AF92BF92CF92DF92EF92FF920F931F9364
:1006CC00CF93DF93A82EB62E142FE22EF12C970188
:1006DC00220F331F83E090E06C01C21AD30AC0E0F2
:1006EC00D0E026C0012F2E2D4C2F6B2D8A2D0E9471
:1006FC00FB03DD2064F4CE01880F991F880F991F2E
:10070C008C0D9D1D6C0126E0C20ED11C10C0CE01BB
:10071C008E199F09880F991F880F991F8C0D9D1D8D
:10072C006C012AE0C20ED11C81E0E81AF108219676
:10073C00EC16FD06BCF60E94F904DF91CF911F91D7
:10074C000F91FF90EF90DF90CF90BF90AF900895F6
:10075C00CF92EF920F9300E02FE34FE360E080E045
:10076C000E94660501E02FE34FE760E080E40E9401
:10077C006605CC24C3940F2EFAE3EF2EF02D0AE37A
:10078C0025E04FE16AE385E00E94B705C12C0AE73A
:10079C0025E04FE56AE384E40E94B7052FEF83ED73
:1007AC0090E3215080409040E1F700C00000CC2441
:1007BC00C3940AE325E04FE16AE385E00E946100FF
:1007CC00C12C0AE725E04FE56AE384E40E9461004E
:1007DC002FEF8DE399E4215080409040E1F700C069
:0A07EC0000000F91EF90CF900895E8
:1007F600CF92DF92EF92FF920F931F93CF93DF93E7
:10080600C82FD62F142FF22ED62ED20EC82EC40ED7
:10081600402F6D2D8C2D0E943105EC2EE11A402FB4
:100826006D2D8E2D0E943105DD2EDF18402F6D2D8A
:100836008C2D0E943105402F6D2D8E2D0E94310585
:10084600DD2ED10EEF2CEC0E402F6D2D8E2D0E943D
:100856003105CF19402F6D2D8C2F0E943105D11BEC
:10086600402F6D2F8E2D0E943105402F6D2F8C2F1E
:100876000E943105DF91CF911F910F91FF90EF906C
:06088600DF90CF90089501
:10088C000F9300E02FE34FE360E080E00E946605E9
:10089C0001E02FE34FE760E080E40E9466052AE365
:1008AC004AE365E085E00E94910500E02AE34AE70F
:1008BC0065E084E40E9491052FEF83ED90E32150D5
:1008CC0080409040E1F700C0000001E02AE34AE3D9
:1008DC0065E085E00E94D60600E02AE34AE765E081
:1008EC0084E40E94D6062FEF8DE399E421508040DA
:0C08FC009040E1F700C000000F9108954B
:100908000F9300E02FE34FE360E080E00E9466056C
:1009180001E02FE34FE760E080E40E9466052BE1E9
:1009280041E06FE18FE10E945E032BE140E06FE15F
:100938008FE50E945E032FEF83ED90E32150804006
:100948009040E1F700C000002BE141E06FE18FE14A
:100958000E9404032BE140E06FE18FE50E9404034D
:100968002FEF8DE399E4215080409040E1F700C0DB
:0609780000000F9108953C
:10097E000E943D060E94C3012FEF81EE94E02150AC
:10098E0080409040E1F700C000000E9484042FEFE9
:10099E0083ED90E3215080409040E1F700C00000CD
:1009AE000E9446042FEF83ED90E32150804090404B
:1009BE00E1F700C000000E94DC052FEF83ED90E30D
:1009CE00215080409040E1F700C000000E94AE032D
:1009DE002FEF83ED90E3215080409040E1F700C06F
:0409EE000000D3CF63
:1009F2000F931F93CF93DF93D0E02BC00D2F10E006
:100A020060E070E0C80180559F4F0E94980660E048
:100A120070E080E090E00E94980660E070E080E183
:100A220090E00E949806C0E011C0F801F695FE2FF2
:100A3200EE27F795E795EC0FF11DE050FF4F80810F
:100A420061E070E090E00E949806CF5FCC236CF7E3
:100A5200DF5FD83098F2DF91CF911F910F91089507
:100A62004423C9F0962F969596959695E82FF0E037
:100A720080E8989FE00DF11D1124677081E090E0FD
:100A820002C0880F991F6A95E2F7E050FF4F9081EC
:100A9200892B80830895962F969596959695E82FA3
:100AA200F0E080E8989FE00DF11D1124677081E06D
:100AB20090E002C0880F991F6A95E2F7E050FF4F5D
:0A0AC20080959081892380830895B8
:100ACC00DF92EF92FF920F931F93CF93DF93E82E59
:100ADC00F62E481B11E0140F261BDD24D394D20EE6
:100AEC00D0E00DC0402F6D2F6F0D8C2F8E0D0E94FE
:100AFC003105CF5F01C0C0E0C117A0F3DF5FDD158A
:100B0C00D0F30E94F904DF91CF911F910F91FF90C8
:060B1C00EF90DF90089548
:100B2200EF92FF920F931F93CF93DF93E82ED62F6E
:100B3200C42F122F262F0E946902212F4E2D6D2FB6
:100B42008E2D0E946902212F4C2F612F8E2D0E9423
:100B52006902212F4C2F6D2F8C2F0E946902DF9189
:0C0B6200CF911F910F91FF90EF9008952C
:100B6E00CF92DF92EF92FF920F931F93CF93DF936B
:100B7E00D82F162FF42ED22EC02F0C2D0E946902C4
:100B8E002E2D4C2F6D2D8F2D0E946902212F4D2F52
:100B9E006E2D8C2F0E946902DF91CF911F910F91C4
:0A0BAE00FF90EF90DF90CF900895C4
:100BB8000F9300E02FE34FE760E080E00E946605B6
:100BC8002FEF83ED90E3215080409040E1F700C083
:100BD800000001E02FE34FE760E080E00E94660537
:100BE8002FEF8DE399E4215080409040E1F700C059
:060BF80000000F910895BA
:100BFE00A1E21A2EAA1BBB1BFD010DC0AA1FBB1F13
:100C0E00EE1FFF1FA217B307E407F50720F0A21B84
:100C1E00B30BE40BF50B661F771F881F991F1A94F1
:100C2E0069F760957095809590959B01AC01BD011B
:040C3E00CF01089545
:100C420085B1816085B92FEF81EE94E0215080401B
:100C52009040E1F700C0000085B18E7F85B92FEF8B
:100C620081EE94E0215080409040E1F700C0000006
:080C720085B1816085B9089588
:100C7A0084B18C6284B98CB58F7D8CBD8CB5877F2D
:100C8A008CBD8CB58B7F8CBD8DB58E7F8DBD8CB5A3
:100C9A008C7F8CBD8CB580618CBD8CB580648CBD1D
:020CAA000895AB
:100CAC00052E97FB1EF400940E94CE0657FD07D02C
:100CBC000E94FF0507FC03D04EF40C94CE06509511
:0E0CCC004095309521953F4F4F4F5F4F089553
:100CDA000F931F93CF93DF93C82FD62F042F122F72
:100CEA0006C0412F602F8C2F0E943105CF5FDC1781
:0C0CFA00C0F7DF91CF911F910F9108957A
:100D0600CF93DF9300D0CDB7DEB78A8341E050E0C2
:100D1600BE016F5F7F4FCE0102960E94AA068981AF
:0A0D26000F900F90DF91CF91089518
:100D3000672B21F095B1926095B903C095B19D7F65
:100D400095B995B19B7F95B90E94830685B1846062
:040D500085B90895C4
:100D5400FC01DB010AC080818EBD0DB407FEFDCF0E
:100D64008EB58D933196415051094115510599F72E
:020D74000895E0
:100D760084B1826084B984B1816084B984B18460AD
:040D860084B908958F
:100D8A00FC012081FB013081FC013083FB012083BF
:020D9A000895BA
:100D9C0090958095709561957F4F8F4F9F4F0895DB
:0A0DAC000F930E9466050F91089551
:040DB6000C94000099
:00000001FF
