:100000000C9434000C947F000C94AD000C94AD0063
:100010000C94AD000C94AD000C94AD000C94AD00AC
:100020000C94AD000C94AD000C94AD000C94AD009C
:100030000C94AD000C94AD000C94AD000C94AD008C
:100040000C94AD000C94AD000C94AD000C94AD007C
:100050000C94AD000C94AD000C94AD000C94AD006C
:100060000C94AD000C94AD0011241FBECFEFD8E06E
:10007000DEBFCDBF0E9440000C943E00F894FFCF3D
:10008000F8940E949E0087B1836087B98AB18F7708
:100090008AB98BB180688BB984B18E6784B94F9966
:1000A00008C087EA91E60197F1F700C00000789454
:1000B00007C083ED90E30197F1F700C00000EFCF98
:1000C00088B1826088B988B18E7F88B99FEF24E3B8
:1000D0008CE0915020408040E1F700C0000088B1E2
:1000E000816088B988B18D7F88B99FEF24E38CE067
:0E00F000915020408040E1F700C00000E1CFB9
:1000FE001F920F920FB60F9211242F938F939F93EF
:10010E0085B18E6785B92FE38DE093E02150804055
:10011E009040E1F700C0000085B1817885B99F91CC
:0E012E008F912F910F900FBE0F901F9018957C
:10013C008AB18B7F8AB98BB184608BB9E9E6F0E028
:0E014C008081826080838DB381608DBB0895B9
:04015A000C94000001
:00000001FF
