:100000000C9437000C9451090C9451090C9451092B
:100010000C9451090C9451090C9451090C945109F8
:100020000C9451090C9451090C9451090C945109E8
:100030000C9451090C9451090C9473080C945109B7
:100040000C9451090C9451090C9436050C945109E7
:100050000C9451090C9451090C9451090C945109B8
:100060000C9451090C9451090100012F80001124B6
:100070001FBECFEFD8E0DEBFCDBFE8E6F0E040E046
:1000800017C0B591A59135912591059107FD0CC03B
:1000900095918591EF01F92FE82F05900D92A21708
:1000A000B307D9F7FE0104C01D92A217B307E1F709
:1000B000ED36F40731F70E949D050C945F00F8942B
:0200C000FFCF70
:1000C200110A041B1111110E101010101010101033
:1000D20018181818181818181C1C1C1C1C1C1C1C7E
:1000E2001E1E1E1E1E1E1E1E1F1F1F1F1F1F1F1F26
:1000F20000000000000000000000000000000000FE
:100102002A2A41544D4547413332502A2A002D2D87
:100112002D2D2D2D3E54494D45523C2D2D2D2D2D4D
:100122002D00447574792D3E20202020202020208F
:0F013200202020202000447574792D3E25640084
:100142002F923F924F926F927F928F929F92AF9295
:10015200BF92CF92DF92EF92FF920F931F93CF93B2
:10016200DF93CDB7DEB762970FB6F894DEBF0FBE4E
:10017200CDBF6C013A01862E7901FC0110861782EF
:10018200848181FFE7C19E012F5F3F4F3D872C870E
:10019200C901A0E8888B998BAA8B9FE3992EF30162
:1001A200849187FC8081882309F4D0C1482D930172
:1001B2002F5F3F4F4F4F853219F03901842E0AC00D
:1001C200F901849147FD808192E0690E711C811CC6
:1001D200853229F4B60190E00E949D06E0CFB12C51
:1001E20000E010E01032A0F48B3269F030F480327B
:1001F20059F0833269F410612CC08D3239F08033AA
:1002020039F4116026C01260146023C0186021C046
:1002120017FD29C090ED980F9A3078F416FF06C0AA
:10022200AAE0BA9E900D1124B92E13C0EAE00E9FE7
:10023200900D1124092F10620CC08E3221F416FD8C
:1002420085C1106406C08C3611F4106802C088366D
:1002520051F4F301849187FC8081FFEF6F1A7F0ACA
:100262008F0A8111BFCF982F9F7D9554933028F428
:1002720024E0E20EF11C99820FC0833631F08337FD
:1002820091F0833509F063C027C0F701808189832B
:1002920097012E5F3F4F7901288839884A88AA241E
:1002A200A394B12C17C0A7014D5F5F4F5F874E87A4
:1002B200F70120803180428016FF03C04B2D50E0B1
:1002C20002C04FEF5FEF842DB1010E9424085C0150
:1002D200EE84FF841F7718C097012D5F3F4F3F8741
:1002E2002E87F70120803180428016FF03C04B2DFC
:1002F20050E002C04FEF5FEF842DB1010E9424084D
:100302005C011068EE84FF8413FD1DC0802F90E015
:10031200A816B906C0F4B60180E290E00E949D06DC
:100322000150F4CFF101849147FC8081FFEF2F1A35
:100332003F0A4F0AB60190E00E949D06011101504A
:1003420021E0A21AB108A114B10461F7F5C0843604
:1003520011F0893671F5F70117FF08C060817181CC
:100362008281938197012C5F3F4F09C06081718127
:10037200072E000C880B990B97012E5F3F4F7901D6
:100382001F76312E97FF0AC09095809570956195E2
:100392007F4F8F4F9F4F312F3068332E2AE030E04E
:1003A200AE014F5F5F4F0E940206482E4C85441AF1
:1003B2004AC0853729F41F7EA12E2AE030E025C0ED
:1003C200512F597FA52E8F36C1F018F4883579F058
:1003D200BDC0803719F0883721F0B8C0852F806101
:1003E200A82EA4FE0DC09A2D9460A92E09C014FF58
:1003F2000AC0A52FA660AA2E06C028E030E005C0DC
:1004020020E130E002C020E132E0F701A7FE08C09F
:100412006081718182819381A7014C5F5F4F07C028
:100422006081718180E090E0A7014E5F5F4F7A01A9
:10043200AE014F5F5F4F0E940206482E5C85451A4F
:100442008A2D8F77382E36FE0DC0932D9E7FA92ED2
:100452004B1458F434FE0BC032FC09C0A32DAE7EFF
:10046200AA2E05C0142DA32C03C0142D01C01B2DD0
:10047200A4FE0EC0FE01E40DF11D8081803321F443
:10048200EA2DE97EAE2E08C0A2FE05C01E5F04C0A2
:100492008A2D867809F01F5FA3FC11C0A0FE06C05A
:1004A200101788F4040DB02EB11A0EC0101760F4A4
:1004B200B60180E290E00E949D061F5FF7CF101701
:1004C20018F4011B02C0B42C00E0A4FE10C0B60157
:1004D20080E390E00E949D06A2FE17C0A1FC03C02B
:1004E20088E790E002C088E590E0B6010CC08A2D52
:1004F200867859F0A1FE02C08BE201C080E2A7FC1F
:100502008DE2B60190E00E949D064B1438F4B601CC
:1005120080E390E00E949D06BA94F7CF4A94E1E00E
:10052200F0E0EC0FFD1FE40DF11D8081B60190E0BB
:100532000E949D064110F2CF002309F430CEB6018D
:1005420080E290E00E949D060150F6CFF60187817D
:10055200908502C08FEF9FEF62960FB6F894DEBFD0
:100562000FBECDBFDF91CF911F910F91FF90EF9002
:10057200DF90CF90BF90AF909F908F907F906F90C1
:080582004F903F902F90089567
:10058A002F923F924F925F926F927F928F92AF9289
:10059A00BF92CF92DF92EF920F931F93CF93DF9385
:1005AA0000D000D000D0CDB7DEB73B01882E5A016B
:1005BA0019014115510521F0FA0160837183828383
:1005CA002114310429F0C1010297839708F01AC156
:1005DA00E82C6301FFEFCF1ADF0AEF0AF301149147
:1005EA0087FC1081812F90E00E940B094C2D3D2D34
:1005FA002E2D892B19F036018E2CEACF1D3269F483
:10060A00E82C630152E0C50ED11CE11CE42FF32F44
:10061A00149127FD108101E00EC01B3259F4E82C19
:10062A00630182E0C80ED11CE11CE42FF32F149160
:10063A0027FD108100E02114310409F190E1291607
:10064A00310429F43FC010E32114310421F1F8E008
:10065A002F16310401F154F432E02316310421F546
:10066A00412C512C612C50E4752E4BC04AE02416C3
:10067A00310439F050E125163104B1F43DC010338C
:10068A0019F13AE0232E312C4CEC442E542C642CD4
:10069A004CE0742E36C098E0292E312C412C512C76
:1006AA00612C20E1722E2DC060E070E080E090E8BD
:1006BA009101032C000C440B550B0E94E6072901FB
:1006CA003A011FC01033C1F4F6018491E7FC80811E
:1006DA008F7D883509F0B7CFAE2DC6010196A11DD1
:1006EA00FC011491A7FD1081E2E0CE0ED11CE11CA1
:1006FA00026060E1262E312C412C512C612C88E0BD
:10070A00782EA0E060E070E0CB019101032C000C90
:10071A00440B550B29833A834B835C83E0EDE10F4D
:10072A00EA3060F02FEB210F2A3110F4E9EC05C012
:10073A002FE9210F2A3150F5E9EAE10F2E2F30E097
:10074A00221533051CF5A7FD18C04616570668067C
:10075A00790680F029813A814B815C810E94BD082B
:10076A006E0F711D811D911D61307105810530E883
:10077A00930710F0AFEF01C0A1E0F6011491E7FC76
:10078A0010814FEFC41AD40AE40AC8CF202F21706F
:10079A00A114B104B1F0AA2349F051E0C51AD10855
:1007AA00E108F501C082D182E2820BC001FF1DC0BF
:1007BA00F2E0CF1AD108E108F501C082D182E282C3
:1007CA0014C0A7FF12C0222329F060E070E080E085
:1007DA0090E804C06FEF7FEF8FEF9FE722E230E0EF
:1007EA0030932E0120932D0109C0222381F0909588
:1007FA008095709561957F4F8F4F9F4F462F372F6A
:10080A00282F12C040E030E020E090E00DC097FFB2
:10081A00F5CF82E290E090932E0180932D016FEF45
:10082A007FEF8FEF9FE7EACF642F732F822F2696F1
:10083A000FB6F894DEBF0FBECDBFDF91CF911F91E7
:10084A000F91EF90DF90CF90BF90AF908F907F90F5
:0C085A006F905F904F903F902F9008959A
:10086600CF92DF92EF92CF930E945A0781EF9BE2DD
:100876000197F1F700C000008BB180688BB985B194
:10088600816085B985B18F7E85B985B18F7D85B942
:1008960085EA9EE00197F1F700C000008BB1806801
:1008A6008BB985B1816085B985B18F7E85B985B1F2
:1008B6008F7D85B90E94F5088BED95E00197F1F7DC
:1008C60000C000008BB180688BB985B1816085B9A5
:1008D60085B18F7E85B985B18F7D85B90E94F50872
:1008E60089EF90E00197F1F700C000008BB18068B6
:1008F6008BB985B1816085B985B18F7E85B985B1A2
:100906008F7D85B90E94F50889EF90E00197F1F790
:1009160000C000008BB18F778BB985B1816085B936
:1009260085B18F7E85B985B18F7D85B90E94F50821
:1009360089EF90E00197F1F700C0000088E20E947D
:10094600E9088CE00E94E90886E00E94E90880E454
:100956000E94E9080F2EF2ECCF2EF0E0DF2EF0E039
:10096600EF2EF02DC0E00BC0F6018491E7FC8081EC
:100976000E943709CF5F8FEFC81AD80AE80AC03439
:1009860098F380E80E94E908CF91EF90DF90CF902E
:020996000895C2
:100998000FC00E941B0938F00E94220920F09523FD
:1009A80011F00C943D090C944B0911240C94150971
:1009B8000E94C40770F3959FC1F3950F50E0551F2F
:1009C800629FF001729FBB27F00DB11D639FAA279C
:1009D800F00DB11DAA1F649F6627B00DA11D661FEB
:1009E800829F2227B00DA11D621F739FB00DA11D0C
:1009F800621F839FA00D611D221F749F3327A00DC6
:100A0800611D231F849F600D211D822F762F6A2F61
:100A180011249F5750409AF0F1F088234AF0EE0FC6
:100A2800FF1FBB1F661F771F881F91505040A9F7F3
:100A38009E3F510580F00C943D090C9415095F3FC9
:100A4800E4F3983ED4F3869577956795B795F7952F
:100A5800E7959F5FC1F7FE2B880F911D96958795A7
:040A680097F908955D
:100A6C001F920F920FB60F9211240F931F932F9377
:100A7C003F934F935F936F937F938F939F93AF931A
:100A8C00BF93CF93EF93FF932091C60020932B013C
:100A9C00283561F50091290110912A01F801EB5ECE
:100AAC00FE4F8AE0808365E171E080E80E9447098F
:100ABC00C82F80932C01A80160E070E085E191E0E3
:100ACC000E94300910922A01109229016C2F70E0BB
:100ADC0080E090E00E94620622E538EB4EE15FE395
:100AEC000E9443090E94D90668BD0DC0809129015E
:100AFC0090912A01FC01EB5EFE4F208301969093AE
:100B0C002A0180932901FF91EF91CF91BF91AF9171
:100B1C009F918F917F916F915F914F913F912F9109
:0E0B2C001F910F910F900FBE0F901F90189504
:100B3A000E94330481E00E94E9082EE030E042E09E
:100B4A0051E060E080E091E00E945A0880E091E084
:100B5A000E94DC0860E081E00E94880824E130E01D
:100B6A0040E151E060E080E091E00E945A0880E0B4
:100B7A0091E00E94DC080E94A20740E855E260E08A
:100B8A0070E081E00E943307789460E082E00E947E
:100B9A00880824E130E044E251E060E080E091E03E
:100BAA000E945A0880E091E00E94DC0860E082E03E
:100BBA000E94880880912C011F928F9388E391E00C
:100BCA00A0E0AF939F938F9380E091E09F938F93E0
:100BDA000E947F0780E091E00E94DC0887EA91E6A4
:100BEA000197F1F700C000008DB79EB707960FB6C0
:0A0BFA00F8949EBF0FBE8DBFC8CF58
:100C0400FA01AA27283051F1203181F1E8946F9339
:100C14006E7F6E5F7F4F8F4F9F4FAF4FB1E03ED0DF
:100C2400B4E03CD0670F781F891F9A1FA11D680F7D
:100C3400791F8A1F911DA11D6A0F711D811D911DB0
:100C4400A11D20D009F468943F912AE0269F112425
:100C54003019305D3193DEF6CF010895462F477089
:100C6400405D4193B3E00FD0C9F7F6CF462F4F70E4
:100C7400405D4A3318F0495D31FD4052419302D042
:100C8400A9F7EACFB4E0A6959795879577956795E8
:100C9400BA95C9F700976105710508959B01AC01E8
:100CA4000A2E06945795479537952795BA95C9F70F
:0C0CB400620F731F841F951FA01D089580
:100CC000E89409C097FB3EF49095809570956195E6
:100CD0007F4F8F4F9F4F9923A9F0F92F96E9BB279C
:100CE0009395F695879577956795B795F111F8CF18
:100CF000FAF4BB0F11F460FF1BC06F5F7F4F8F4F83
:100D00009F4F16C0882311F096E911C0772321F078
:100D10009EE8872F762F05C0662371F096E8862F10
:100D200070E060E02AF09A95660F771F881FDAF767
:0A0D3000880F9695879597F90895AE
:100D3A000F931F93CF93DF93FB01248121FD03C0FF
:100D4A008FEF9FEF2CC022FF16C047815085258167
:100D5A0036814217530744F4A081B1819D012F5F68
:100D6A003F4F318320838C93278130852F5F3F4FFC
:100D7A003087278314C08B01EC01FB010184F285C3
:100D8A00E02D0995892BE1F6D80117968D919C9152
:100D9A001897019618969C938E931797CE01DF9118
:080DAA00CF911F910F910895F4
:100DB2000E94CC0788F09F5798F0B92F9927B75116
:100DC200B0F0E1F0660F771F881F991F1AF0BA95ED
:100DD200C9F714C0B13091F00E941409B1E008952E
:100DE2000C941409672F782F8827B85F39F0B93F20
:100DF200CCF3869577956795B395D9F73EF49095A0
:0E0E02008095709561957F4F8F4F9F4F08959B
:100E10009BB19F779BB99BB1282F279522272795B8
:100E2000922B9BB995B19E7F95B995B181FB2227F5
:100E300020F9922B95B995B19F7E95B925B182FB8A
:100E4000992790F99295907F922B95B995B19F7DB6
:100E500095B995B183FB882780F98295880F807EAC
:060E6000892B85B90895FD
:100E6600813041F4E0ECF0E08081826080838CE0A8
:100E760090E002C085E090E09093C5008093C400A6
:100E8600E2ECF0E080818B7F8083808186608083C6
:100E960080818F7C80838081877F8083E1ECF0E096
:0E0EA6008081886180838081806880830895C8
:100EB4008AB184608AB98AB180618AB98AB180684A
:100EC4008AB984B1816084B984B1806184B984B100
:100ED400806284B98BB18B7F8BB98BB18F7E8BB9D8
:100EE4008BB18F778BB985B18E7F85B985B18F7EB4
:0A0EF40085B985B18F7D85B9089599
:100EFE00AFE0B0E0E5E8F7E00C9416080E891F8924
:100F0E0086E08D831A8309838FEF9FE79F838E83FD
:100F1E009E01255E3F4F488D598D6A8DCE010196FB
:100F2E000E94A100E885F985E00FF11F10822F962F
:060F3E00E4E00C944D08F4
:100F44008AB180628AB985B5826085BD84B58360C3
:100F540084BD85B5886085BD84B5806284BD8EE31B
:100F640087BD60912C0170E080E090E00E946206F1
:100F740022E538EB4EE15FE30E9443090E94D90663
:040F840068BD0895A7
:100F880057FD9058440F551F59F05F3F71F0479532
:100F9800880F97FB991F61F09F3F79F08795089517
:100FA800121613061406551FF2CF4695F1DF08C036
:100FB800161617061806991FF1CF86957105610553
:040FC80008940895EC
:100FCC00A1E21A2EAA1BBB1BFD010DC0AA1FBB1F41
:100FDC00EE1FFF1FA217B307E407F50720F0A21BB3
:100FEC00B30BE40BF50B661F771F881F991F1A9420
:100FFC0069F760957095809590959B01AC01BD014A
:04100C00CF01089573
:101010002F923F924F925F926F927F928F929F9208
:10102000AF92BF92CF92DF92EF92FF920F931F93F6
:10103000CF93DF93CDB7DEB7CA1BDB0B0FB6F894A7
:08104000DEBF0FBECDBF099415
:10104800CF92DF92EF926B01E82EA82FCB014115CA
:10105800510531F48C199D09EF90DF90CF900895D8
:10106800FC012491A7FD20812223A1F30196A11D53
:0610780041505109ECCFCC
:10107E002A88398848885F846E847D848C849B841A
:10108E00AA84B984C884DF80EE80FD800C811B8128
:10109E00AA81B981CE0FD11D0FB6F894DEBF0FBE57
:0610AE00CDBFED01089525
:1010B400CF92DF92EF92DC016A01E62E280F391FEE
:1010C400A217B30751F0F6014491E7FC40814D9318
:1010D4004FEFC41AD40AE40AF3CFEF90DF90CF9015
:0210E40008956D
:1010E6001F920F920FB60F9211248F939F9385B381
:1010F600826085BB9BB180E489278BB99F918F91D4
:0A1106000F900FBE0F901F90189578
:10111000813039F060F0823031F0833031F080E09E
:1011200007C080EC05C084E903C084ED01C080E8FD
:08113000860F0E94E9080895F2
:10113800092E0394000C11F4882352F0BB0F40F4DD
:10114800BF2B11F460FF04C06F5F7F4F8F4F9F4F1D
:021158000895F8
:10115A00CF93C82F82958F700E9408070E94F508C6
:10116A008C2F8F700E9408070E94F508CF9108956E
:10117A00DB018F939F930E940009BF91AF91A29FB9
:10118A00800D911DA39F900DB29F900D112408957B
:10119A00A29FB001B39FC001A39F700D811D1124AE
:0E11AA00911DB29F700D811D1124911D08959D
:1011B800CF93DF93EC0103C00E9437092196888101
:0A11C8008111FACFDF91CF91089555
:1011D2009BB19B7F9BB90E94AD088DEE92E0019777
:0811E200F1F700C000000895C0
:1011EA008BB180618BB986EA8A95F1F700C08BB121
:0611FA008F7E8BB9089501
:101200000E94CD08A59F900DB49F900DA49F800DC6
:06121000911D1124089558
:1012160091110C944E09803219F089508550C8F707
:02122600089529
:0E122800E894BB2766277727CB0197F9089536
:0E12360000240A9416161706180609060895D5
:0E12440000240A9412161306140605060895D7
:0E1252002AE030E040E050E00E94C50208951E
:0E126000DC0101C06D9341505040E0F708954D
:0C126E009BB194609BB90E94AD080895EC
:0C127A0097F99F6780E870E060E008953D
:081286000E94CC040C949C08AA
:08128E000E942909CB0108951B
:061296009FEF80EC0895BB
:06129C0099278827089540
:0412A2000C940000A8
:00000001FF
