:100000000C94B7000C94CD1B0C94CD1B0C94CD1B01
:100010000C94CD1B0C94CD1B0C94CD1B0C94CD1BC0
:100020000C94CD1B0C94CD1B0C94CD1B0C94CD1BB0
:100030000C94CD1B0C94CD1B0C94CD1B0C94CD1BA0
:100040000C94CD1B0C94CD1B0C94CD1B0C94CD1B90
:100050000C94CD1B0C94CD1B0C94CD1B0C94CD1B80
:100060000C94CD1B0C94CD1B0100058E80058E05D4
:100070009800379E00407A10F35A00A0724E18097B
:100080000010A5D4E80000E87648170000E40B54FF
:10009000020000CA9A3B000000E1F50500008096CE
:1000A0009800000040420F000000A0860100000000
:1000B000102700000000E8030000000064000000BA
:1000C00000000A00000000000100000000002C7683
:1000D000D888DC674F0823DFC1DFAE59E1B1B7969E
:1000E000E5E3E453C63AE651997696E8E6C28426FB
:1000F000EB898C9B62ED407C6FFCEFBC9C9F40F2D7
:10010000BAA56FA5F490055A2AF75C936B6CF96752
:100110006DC11BFCE0E40D47FEF520E6B500D0ED17
:10012000902E0300943577050080841E080000207F
:100130004E0A000000C80C333333330F986E12831D
:100140001141EF8D2114893BE65516CFFEE6DB18F1
:10015000D1844B381BF77C1D901DA4BBE4242032B6
:1001600084725E228100C9F124ECA1E53D271124AF
:100170001FBECFEFD8E0DEBFCDBFE8E6F0E040E045
:1001800017C0B591A59135912591059107FD0CC03A
:1001900095918591EF01F92FE82F05900D92A21707
:1001A000B307D9F7FE0104C01D92A217B307E1F708
:1001B000E437F40731F70E94B4180C94DF00F89488
:0201C000FFCF6F
:1001C200000000000000000000000000000000002D
:1001D200000000000000000000000000000000001D
:1001E200000000000000000000000000000000000D
:1001F20000000000E003E003E003E003E003E003AB
:10020200E003E003C003C003C001C001C001C0019C
:10021200C001000000000000E003E003E003000072
:1002220000000000000000003C1E3C1E3C1E3C1E64
:100232003C1E3C1E3C1E00000000000000000000AE
:1002420000000000000000000000000000000000AC
:10025200000000000000000000000000CE01CE03FC
:10026200DE039E039C039C07FF3FFF7F3807380F86
:10027200780F780F780EFFFFFFFFF01EF01CE01CD6
:10028200E03CE03DE039000000000000000000001A
:10029200FC03FE0FEE1FE01EE01EE01EE01EE01F4C
:1002A200E00FE007F003FC01FE01FE01FE01FE018A
:1002B200FE01FE01FE3DFC3FF00FE001E001000007
:1002C20000000000033E07F78FE78EE79EE3BCE3E2
:1002D200B8E7F8E7F0F7E03FC001FF03FF07F307D5
:1002E200F30FF31EF33CF338F3787FF03FE00000A6
:1002F2000000000000000000E007F80F780F781FF0
:10030200781F781F780FF00FE00F801FC37FC3FBA9
:10031200E7F3F7F1F7F0FFF07FF03EF87F7CFF3F65
:10032200EF1F00000000000000000000E003E003F7
:10033200E003E003E003C003C0010000000000008E
:1003420000000000000000000000000000000000AB
:10035200000000000000000000000000000000009B
:100362003F007C00F001E001C003C0078007800766
:10037200800F000F000F000F000F000F000F800F03
:1003820080078007C007C003E001F0017C003F0046
:100392000F000000007E001FC007C003E001F00153
:1003A200F000F000F800780078007800780078001B
:1003B2007800F800F000F000F001E001C003C0078F
:1003C200001F007E00780000E003C003C001CE39A8
:1003D200FF3F7F3F20037003F807780F3C1F38066A
:1003E200000000000000000000000000000000000B
:1003F20000000000000000000000000000000000FB
:100402000000000000000000C001C001C001C001E6
:10041200C001C001C001FFFFFFFFC001C001C00158
:10042200C001C001C0010000000000000000000087
:1004320000000000000000000000000000000000BA
:1004420000000000000000000000000000000000AA
:100452000000E003E003E003E003E001E001E0016B
:10046200C001800300000000000000000000000046
:1004720000000000000000000000FE3FFE3F000000
:10048200000000000000000000000000000000006A
:10049200000000000000000000000000000000005A
:1004A200000000000000000000000000000000004A
:1004B20000000000000000000000E003E003E00391
:1004C200E003000000000000000000000F000F0029
:1004D2001E001E003C003C0078007800F000F00096
:1004E200E001E001C003C00380078007000F000F96
:1004F200001E001E003C003C0078007800F0000066
:10050200F007F80F7C1F3E3E1E3C1F7C1F7C0F78BD
:100512000F780F780F780F780F780F781F7C1F7C79
:100522001E3C3E3E7C1FF80FF0070000000000005A
:1005320000000000F000F007F03FF03FF001F00192
:10054200F001F001F001F001F001F001F001F00121
:10055200F001F001F001F001F001FF3FFF3F000068
:100562000000000000000000E00FF83F7C3C3C006F
:100572003E003E003E003C003C007C00F800F001E2
:10058200E003C0078007000F001E003E003CFE3F54
:10059200FE3F00000000000000000000F00FF81F06
:1005A2007C1C3E003E003E003C003C00F800F00F88
:1005B200F80F7C003E001E001E001E001E003E00C2
:1005C2007C1CF81FE01F000000000000000000007B
:1005D2007800F800F800F801F803F807F807780F38
:1005E200781E781E783C78787878FFFFFFFF7800D5
:1005F20078007800780078007800000000000000A1
:1006020000000000FC1FFC1FFC1F001E001E001E3D
:10061200001E001EE01FF81FFC007C003E003E0092
:100622001E003E003E003C007C1CF81FE01F000044
:100632000000000000000000FC01FE078E0F001FFA
:10064200001E003E003C003CF83DFC3F3E7F1F7E0A
:100652000F3C0F3C0F3C0F3C0F3E1F1E3E1FFC0F7A
:10066200F00300000000000000000000FF3FFF3F19
:10067200FF3F0F001E001E003C0038007800F00013
:10068200F000E001E001C003C0038007800F800F8B
:10069200000F001F001F000000000000000000000B
:1006A200F807FC0F3E1F1E1E1E3E1E3E1E1E3C1F56
:1006B200F80FF007F80FFC1E3E3E1F3C1F7C0F7C1C
:1006C2000F7C1F3C3E3FFC1FF007000000000000B3
:1006D20000000000F007F80F7C1E3E3C1E3C1F7C11
:1006E2001F7C1F7C1F7C1F3C3F3EFF1FEF071F002C
:1006F2001E001E003E003C00F838F03FE01F0000E4
:1007020000000000000000000000000000000000E7
:1007120000000000E003E003E003E003000000004B
:1007220000000000000000000000E003E003E0031E
:10073200E0030000000000000000000000000000D4
:100742000000000000000000E003E003E003E0031B
:100752000000000000000000000000000000E003B4
:10076200E003E003E003E001E001E001C0038003F5
:1007720000000000000000000000000003000F0065
:100782003F00FC00F003C00F003F00FE003FC00F1F
:10079200F003FC003F000F00030000000000000017
:1007A2000000000000000000000000000000000047
:1007B2000000000000000000FFFFFFFF000000003B
:1007C2000000FFFFFFFF000000000000000000002B
:1007D2000000000000000000000000000000000017
:1007E2000000000000E000F8007E801FE007F80132
:1007F2007E001F007E00F801E007801F007E00F8E7
:1008020000E000000000000000000000F01FFC3FBC
:100812003E381F381F381E001E003C007800F000D2
:10082200E001C003C003C007C007000000000000D1
:10083200C007C007C0070000000000000000000061
:10084200F803FE0F1E1F0F3E7F3CFF78EF79C77340
:10085200C7F38FF38FF38FF39FF39FF3FF73FF7B46
:10086200F779003C1C1FFC0FF80300000000000099
:1008720000000000000000000000E003E003F007B9
:10088200F007F007780F780F7C0E3C1E3C1E3E3CB2
:10089200FE3FFF3F1F780F780FF007F007F00000D0
:1008A2000000000000000000000000000000F83F0F
:1008B200FC3F3E3C1E3C1E3C1E3C3E3C7C3CF03F12
:1008C200F83F7E3C1F3C1F3C0F3C0F3C1F3CFE3F51
:1008D200F83F0000000000000000000000000000DF
:1008E2000000FF01FF07871F003E003C007C0078EC
:1008F2000078007800780078007C007C003E003FA1
:10090200831FFF07FF01000000000000000000003D
:10091200000000000000F07FFC7F7E781F781F78C7
:100922000F780F780F780F780F780F780F780F788D
:100932001F781E787E78F87FE07F000000000000BC
:1009420000000000000000000000FF3FFF3F003EEB
:10095200003E003E003E003E003EFE3FFE3F003EA7
:10096200003E003E003E003E003EFF3FFF3F0000D3
:100972000000000000000000000000000000FF1F57
:10098200FF1F001E001E001E001E001E001EFF1F75
:10099200FF1F001E001E001E001E001E001E001E65
:1009A200001E000000000000000000000000000027
:1009B2000000FE03FF0F871F003E007C007C0078D2
:1009C20000F800F87FF87FF80F780F7C0F7C0F3E5D
:1009D2008F1FFF0FFE030000000000000000000058
:1009E2000000000000001F7C1F7C1F7C1F7C1F7CFE
:1009F2001F7C1F7C1F7CFF7FFF7F1F7C1F7C1F7C57
:100A02001F7C1F7C1F7C1F7C1F7C000000000000DD
:100A120000000000000000000000FF3FFF3FE00375
:100A2200E003E003E003E003E003E003E003E003AC
:100A3200E003E003E003E003E003FF3FFF3F0000C9
:100A42000000000000000000000000000000FC1F89
:100A5200FC1F7C007C007C007C007C007C007C0015
:100A62007C007C007C007C0078007800F838F03F45
:100A7200C03F000000000000000000000000000075
:100A820000001F3C1E3C3C3C783CF03CE03DE03F1B
:100A9200C03F803FC03FE03FF03DF03C783C7C3CB3
:100AA2003E3C1F3C0F3C0000000000000000000024
:100AB200000000000000003E003E003E003E003EFE
:100AC200003E003E003E003E003E003E003E003E34
:100AD200003E003E003EFF3FFF3F000000000000DE
:100AE200000000000000000000001FF81FFC1FFCB7
:100AF2003FFE3FFE3FFE7FFF77FF77FFF7F7E7F707
:100B0200E7F3E7F3C7F307F007F007F007F0000099
:100B120000000000000000000000000000000F7C48
:100B22000F7C0F7E0F7F0F7F8F7F8F7FCF7FEF7BBB
:100B3200EF79FF79FF78FF787F783F783F781F78E9
:100B42001F7800000000000000000000000000000C
:100B52000000F007FC1F3E3E1F7C0F780F780FF855
:100B62000FF80FF80FF80FF80FF80F780F781F7CB7
:100B72003E3EFC1FF00700000000000000000000E5
:100B8200000000000000FC3FFF3F1F3E0F3E0F3EF3
:100B92000F3E0F3E1F3E3F3EFC3FF03F003E003EF9
:100BA200003E003E003E003E003E0000000000000D
:100BB20000000000000000000000F007FC1F3E3EA5
:100BC2001F7C0F780F780FF80FF80FF80FF80FF857
:100BD2000FF80F780F781F7C3E3EFC1FF8077C0051
:100BE2003F000F0003000000000000000000F03F83
:100BF200FC3F7E3C3E3C1E3C1E3C3E3C3C3CFC3CA6
:100C0200F03FE03FF03DF83C7C3C3E3C1E3C1F3C4C
:100C12000F3C000000000000000000000000000087
:100C22000000FC07FE1F0E3E003C003C003C003E64
:100C3200C01FF80FFE037F001F000F000F001F20D0
:100C42003E3CFC3FF01F00000000000000000000DE
:100C5200000000000000FFFFFFFFE003E003E003ED
:100C6200E003E003E003E003E003E003E003E0036A
:100C7200E003E003E003E003E00300000000000003
:100C8200000000000000000000000F7C0F7C0F7CC1
:100C92000F7C0F7C0F7C0F7C0F7C0F7C0F7C0F7CFA
:100CA2000F7C0F7C1E3C1E3C3E3EFC1FF0070000EA
:100CB200000000000000000000000000000007F03B
:100CC20007F007F80F780F7C1E3C1E3C1E3E3C1EB0
:100CD2003C1F781F780FF80FF007F007F007E003CA
:100CE200E00300000000000000000000000000001F
:100CF200000003E003F003F007F0E7F3E7F3E7F3A4
:100D0200E773F77BF77FFF7F7F7F7F7F7E7F7E3F6B
:100D12003E3E3E3E3E3E000000000000000000005D
:100D220000000000000007F80F7C1E3E3E3E3C1F04
:100D3200F80FF007E007E003E003F007F80F7C0F7D
:100D42007C1E3E3C1F780F780FF000000000000070
:100D52000000000000000000000007F807780F7C88
:100D62001E3C1E3E3C1F780FF80FF007E003E00325
:100D7200E003E003E003E003E003E003E00300003C
:100D82000000000000000000000000000000FF7FE3
:100D9200FF7F0F001F003E007C00F800F000E00122
:100DA200E003C007800F000F001E003E007CFF7FA3
:100DB200FF7F00000000000000000000FF07800726
:100DC20080078007800780078007800780078007E9
:100DD20080078007800780078007800780078007D9
:100DE20080078007800780078007FF07FF07000052
:100DF20000780078003C003C001E001E000F000F2F
:100E020080078007C003C003E001E001F000F000AA
:100E1200780078003C003C001E001E000F000F000E
:100E220007000000F07FF000F000F000F000F0009A
:100E3200F000F000F000F000F000F000F000F00030
:100E4200F000F000F000F000F000F000F000F00020
:100E5200F000F07FF07F0000C000C001C001E0039D
:100E6200E003F007F0077807780F380F3C1E3C1EAE
:100E72001E3C1E3C0F380F7807780000000000006F
:100E82000000000000000000000000000000000060
:100E92000000000000000000000000000000000050
:100EA2000000000000000000000000000000000040
:100EB200000000000000FFFFFFFF00000000000034
:100EC200F000000000000000000000000000000030
:100ED2000000000000000000000000000000000010
:100EE2000000000000000000000000000000000000
:100EF20000000000000000000000000000000000F0
:100F0200F80FFC3F7C3C3E003E003E00FE07FE1F09
:100F12003E3E3E7C3E783E7C7E7CFF3FCF1F000003
:100F22000000000000000000003C003C003C003CCF
:100F3200003C003CF83DFE3F3E3F1F3E0F3C0F3C55
:100F42000F3C0F3C0F3C0F3C1F3C1E3C3E3FFC3F06
:100F5200F03B000000000000000000000000000064
:100F62000000000000000000FE03FF0F871F003E8C
:100F7200003E003C007C007C007C003C003E003EC9
:100F8200871FFF0FFE0300000000000000000000AA
:100F92001F001F001F001F001F001F00FF07FF1F71
:100FA2003F3E1F3C1F7C1F7C1F7C1F781F781F7CCD
:100FB2001F7C3F3C7F3EFF1FDF0F00000000000050
:100FC200000000000000000000000000000000001F
:100FD200F803FC0F3E1F1E3E1F3C1F7CFF7FFF7F5E
:100FE200007C007C003C003E071FFF0FFE03000058
:100FF2000000000000000000FF01E103C003C00781
:10100200C007C007FF7FFF7FC007C007C007C00738
:10101200C007C007C007C007C007C007C007C00796
:10102200C0070000000000000000000000000000F7
:101032000000000000000000EF07FF1F7F3E1F3C82
:101042001F7C1F7C1F781F781F781F7C1F7C3F3CF2
:101052007F3EFF1FDF0F1E001E001E007C38F83F80
:10106200003C003C003C003C003C003CFC3DFE3FA0
:101072009E3F1F3F1F3E1F3C1F3C1F3C1F3C1F3C0F
:101082001F3C1F3C1F3C1F3C1F3C00000000000097
:1010920000000000F001F00100000000000000006C
:1010A200E07FE07FE001E001E001E001E001E0013A
:1010B200E001E001E001E001E001E001E001000007
:1010C2000000000000000000F800F800000000002E
:1010D20000000000F83FF83FF800F800F800F800C0
:1010E200F800F800F800F800F800F800F800F8003E
:1010F200F800F800F800F000F071E07F003C003CDE
:10110200003C003C003C003C1F3C3E3C7C3CF83C2C
:10111200F03DE03DC03FC03FE03FF03DF83C7C3C4D
:101122003E3C1F3C1F3C000000000000000000008D
:10113200F07FF001F001F001F001F001F001F001A7
:10114200F001F001F001F001F001F001F001F00115
:10115200F001F001F001F001F001000000000000D8
:10116200000000000000000000000000000000007D
:101172009EF7FFFFFFFFFFFFE7FBE7F9C7F1C7F1AC
:10118200C7F1C7F1C7F1C7F1C7F1C7F1C7F1000055
:10119200000000000000000000000000000000004D
:1011A20000000000FC3DFE3F9E3F1F3F1F3E1F3CD4
:1011B2001F3C1F3C1F3C1F3C1F3C1F3C1F3C1F3C55
:1011C2001F3C0000000000000000000000000000C2
:1011D2000000000000000000F007FC1F3E3E1F3C24
:1011E2001F7C0F780F780F780F780F781F7C1F3CC9
:1011F2003E3EFC1FF007000000000000000000005F
:10120200000000000000000000000000F83DFE3F6A
:101212003E3F1F3E0F3C0F3C0F3C0F3C0F3C0F3C30
:101222001F3C1E3E3E3FFC3FF83F003C003C003C62
:10123200003C003C00000000000000000000000034
:10124200EE07FE1F7E3E1E3C1E7C1E781E781E7818
:101252001E781E781E7C3E7C7E3EFE1FDE0F1E0028
:101262001E001E001E001E00000000000000000004
:10127200000000007F1FFF1FE71FC71F871F001FFF
:10128200001F001F001F001F001F001F001F001F64
:10129200001F00000000000000000000000000002D
:1012A2000000000000000000FC07FE1F0E1E003EB2
:1012B200003E003FE01FFC07FE003E001E001E0035
:1012C2003E3CFC3FF01F0000000000000000000058
:1012D200000000000000800780078007FF7FFF7F7B
:1012E20080078007800780078007800780078007C4
:1012F20080078007C007FF03FF0100000000000015
:1013020000000000000000000000000000000000DB
:101312001E3C1E3C1E3C1E3C1E3C1E3C1E3C1E3CFB
:101322001E3C1E3C3E3C7E3CFE3EFE1FDE0F00008D
:1013320000000000000000000000000000000000AB
:101342000000000007F00F780F781E3C1E3C1E3E86
:101352003C1E3C1E780F780FF00FF007F007E003F9
:10136200E003000000000000000000000000000098
:10137200000000000000000003F0E3F1E3F3E7F3F4
:10138200F7F3F7F3F77F777F7F7F7F7F7F7F3E3EA5
:101392003E3E3E3E3E3E00000000000000000000D7
:1013A2000000000000000000000000000F7C1E3E54
:1013B2003C3E3C1FF80FF007F007E003F007F80788
:1013C200F80F7C1E3E3E1F3C1F780000000000000C
:1013D200000000000000000000000000000000000B
:1013E20007F80F780F7C1E3C1E3C3C1E3C1E3C1F27
:1013F200780FF80FF007F007E003E003C003C00323
:10140200C0038007800F007F000000000000000082
:1014120000000000FF3FFF3F1F003E007C00F8007D
:10142200F001E003C007800F001F001E003CFF7F99
:10143200FF7F00000000000000000000FE01E0034A
:10144200C003C003C003C003E001E001E001C0012A
:10145200C003803F803FC003C001E001E001E00122
:10146200C003C003C003C003E003FE017E0000000E
:10147200C001C001C001C001C001C001C001C00162
:10148200C001C001C001C001C001C001C001C00152
:10149200C001C001C001C001C001C001C001C00142
:1014A200C0010000C03FE003E001E001E001E00113
:1014B200C001C003C003C001E001FE00FE00E00164
:1014C200C001C003C003C001E001E001E001E0018E
:1014D200E003C03F003F00000000000000000000E9
:1014E2000000000000000000000000000000073FB4
:1014F200C77FE773FFF17EF00000000000000000EC
:0C150200000000000000000000000000DD
:10150E0000000000000000000000000000000000CD
:10151E0000000000000000000000000000000000BD
:10152E00000000000000000C000C000C000C000C71
:10153E00000C000C000C000C000C000C0000000C49
:10154E00000C0000000000000000001B001B001B30
:10155E00001B001B00000000000000000000000047
:10156E0000000000000000000000000000008019D4
:10157E00801980198019C07FC07F80190033C07F09
:10158E00C07F003300330033003300000000000042
:10159E000000001E003F807580650074003C001E38
:1015AE0000078005806580658075003F001E000481
:1015BE00000400000000007000D840D8C0D880D9C8
:1015CE0000730006000C801BC036C066C046C00605
:1015DE0080030000000000000000001E003F0033EA
:1015EE0000330033001E000CC03CC0668063806177
:1015FE008063C03E801C0000000000000000000C54
:10160E00000C000C000C000C00000000000000009C
:10161E0000000000000000000000000000000000BC
:10162E00800000010003000600060004000C000C00
:10163E00000C000C000C000C000400060006000359
:10164E0000018000002000100018000C000C0004A7
:10165E000006000600060006000600060004000C48
:10166E00000C0018001000200000000C002D003FA0
:10167E00001E00330000000000000000000000000B
:10168E00000000000000000000000000000000004C
:10169E000000000C000C000C000CC0FFC0FF000C82
:1016AE00000C000C000C0000000000000000000008
:1016BE00000000000000000000000000000000001C
:1016CE0000000000000000000000000C000C0004F0
:1016DE0000040008000000000000000000000000F0
:1016EE00000000000000001E001E000000000000B0
:1016FE0000000000000000000000000000000000DC
:10170E0000000000000000000000000000000000CB
:10171E000000000C000C00000000000000000003A0
:10172E00000300030006000600060006000C000C75
:10173E00000C000C0018001800180000000000003B
:10174E000000001E003F0033806180618061806D6B
:10175E00806D8061806180610033003F001E00005B
:10176E000000000000000006000E001E00360026DD
:10177E00000600060006000600060006000600062B
:10178E0000060000000000000000001E003F8073F5
:10179E0080618061800100030006000C001800309B
:1017AE000060807F807F0000000000000000001CB1
:1017BE00003E006300630003000E000E0003800174
:1017CE00800180618073003F001E00000000000059
:1017DE0000000006000E000E001E001E0016003651
:1017EE0000360066807F807F00060006000600003F
:1017FE00000000000000007F007F006000600060BD
:10180E00006E007F80638001800180618073003FE5
:10181E00001E0000000000000000001E003F80338C
:10182E0080610060006E007F8073806180618061E6
:10183E008033003F001E0000000000000000807F8B
:10184E00807F80010003000300060006000C000CE0
:10185E00000C00080018001800180000000000001E
:10186E000000001E003F8063806180610021001E29
:10187E00003F8061806180618061003F001E00003A
:10188E00000000000000001E003F007380618061B8
:10189E0080618073803F801D800180610073003FF6
:1018AE00001E00000000000000000000000000000C
:1018BE000000000C000C0000000000000000000002
:1018CE000000000C000C00000000000000000000F2
:1018DE000000000000000000000C000C00000000E2
:1018EE00000000000000000C000C000400040008C2
:1018FE00000000000000000080008003000E003891
:10190E0000600038000E8003800000000000000020
:10191E000000000000000000000000000000807FBA
:10192E00807F00000000807F807F000000000000AC
:10193E000000000000000000000000000000000099
:10194E0000400070001C000780010007001C0070A2
:10195E000040000000000000000000000000001F1A
:10196E00803FC071C060C000C00180030007000E40
:10197E00000C000C0000000C000C00000000000029
:10198E000000001E003F803180718063806F806D8B
:10199E00806D806F806700600032003E001C00008A
:1019AE00000000000000000E000E001B001B001BBC
:1019BE00001B80318031803F803F8031C060C0602D
:1019CE00C0600000000000000000007C007E00638C
:1019DE00006300630063007E007E006380618061AF
:1019EE008063007F007E0000000000000000001EEB
:1019FE00003F803180610060006000600060006028
:101A0E00006080618031003F001E00000000000079
:101A1E000000007C007F00638063806180618061D4
:101A2E0080618061806100630063007E007C000045
:101A3E00000000000000807F807F0060006000607A
:101A4E000060007F007F0060006000600060807FAB
:101A5E00807F0000000000000000807F807F00601B
:101A6E00006000600060007F007F0060006000602A
:101A7E000060006000600000000000000000001E1A
:101A8E00003F803180610060006000608063806391
:101A9E00806180618031803F001E000000000000E8
:101AAE000000806180618061806180618061807FE3
:101ABE00807F8061806180618061806180610000D3
:101ACE00000000000000003F003F000C000C000C66
:101ADE00000C000C000C000C000C000C000C003F65
:101AEE00003F000000000000000080018001800126
:101AFE008001800180018001800180018061806110
:101B0E008073003F001E0000000000000000C06057
:101B1E008061006300660066006C0078007C0066E1
:101B2E000066006380618061C060000000000000FC
:101B3E0000000060006000600060006000600060F7
:101B4E0000600060006000600060807F807F0000A9
:101B5E00000000000000C071C071C07BC07AC06A76
:101B6E00C06AC06EC064C060C060C060C060C0604B
:101B7E00C06000000000000000008071807180795C
:101B8E0080798079806D806D806D806580678067DB
:101B9E008067806380630000000000000000001E6C
:101BAE00003F00338061806180618061806180616F
:101BBE00806180610033003F001E000000000000C5
:101BCE000000007E007F80638061806180618063A1
:101BDE00007F007E0060006000600060006000001A
:101BEE00000000000000001E003F00338061806195
:101BFE008061806180618061806580670033803F95
:101C0E00401E0000000000000000007E007F806388
:101C1E00806180618063007F007E006600630063E8
:101C2E0080618061C0600000000000000000000EB6
:101C3E00001F8031803100300038001E0007800305
:101C4E00806180618031003F001E000000000000B6
:101C5E000000C0FFC0FF000C000C000C000C000CBC
:101C6E00000C000C000C000C000C000C000C000012
:101C7E0000000000000080618061806180618061F1
:101C8E008061806180618061806180618073003FCE
:101C9E00001E0000000000000000C060C060C060B8
:101CAE00803180318031001B001B001B001B000E99
:101CBE00000E000E00040000000000000000C0C076
:101CCE00C0C0C0C0C0C0C0C0C0CC804C804C805E04
:101CDE00805280528073806180610000000000009D
:101CEE000000C0C0806080610033003B001E000C0D
:101CFE00000C001E001F003B80718061C0C0000000
:101D0E00000000000000C0C080618061003300331D
:101D1E00001E001E000C000C000C000C000C000C31
:101D2E00000C0000000000000000803F803F80019A
:101D3E00000300030006000C000C00180018003011
:101D4E000060807F807F000000000000000F000F09
:101D5E00000C000C000C000C000C000C000C000C15
:101D6E00000C000C000C000C000C000C000F000FFF
:101D7E000000001800180018000C000C000C000CDD
:101D8E000006000600060006000300030003000024
:101D9E0000000000001E001E0006000600060006E1
:101DAE0000060006000600060006000600060006F5
:101DBE0000060006001E001E0000000C000C001E97
:101DCE0000120033003380618061000000000000CB
:101DDE0000000000000000000000000000000000F5
:101DEE0000000000000000000000000000000000E5
:101DFE00000000000000000000000000E0FF0000F6
:101E0E00000000380018000C000000000000000068
:101E1E0000000000000000000000000000000000B4
:101E2E000000000000000000000000000000001F85
:101E3E00803F80618001801F803F80618063807F52
:101E4E00C03800000000000000000060006000606C
:101E5E000060006E007F80738061806180618061B0
:101E6E008073007F006E0000000000000000000084
:101E7E00000000000000001E003F807380610060C3
:101E8E00006080618073003F001E000000000000B3
:101E9E0000008001800180018001801D803F8073E1
:101EAE0080618061806180618073803F801D000051
:101EBE000000000000000000000000000000001EF6
:101ECE00003F00738061807F807F00608071003FE3
:101EDE00001E0000000000000000C007C00F000C34
:101EEE00000C807F807F000C000C000C000C000C9E
:101EFE00000C000C000C00000000000000000000B0
:101F0E0000000000801D803F8073806180618061D1
:101F1E0080618073803F801D80018063007F003E62
:101F2E0000000060006000600060006F807F8071C4
:101F3E00806180618061806180618061806100006C
:101F4E000000000000000006000600000000003E39
:101F5E00003E00060006000600060006000600060B
:101F6E000006000000000000000600060000000051
:101F7E00003E003E000600060006000600060006B3
:101F8E000006000600060046007E003C00000060D1
:101F9E00006000600060806100630066006C007C81
:101FAE000076006300638061C060000000000000E6
:101FBE000000003E003E0006000600060006000679
:101FCE0000060006000600060006000600060000D9
:101FDE00000000000000000000000000000080DD96
:101FEE00C0FFC0CEC0CCC0CCC0CCC0CCC0CCC0CC4E
:101FFE00C0CC000000000000000000000000000047
:10200E000000006F807F80718061806180618061DF
:10201E00806180618061000000000000000000000F
:10202E00000000000000001E003F80738061806190
:10203E00806180618073003F001E00000000000080
:10204E000000000000000000006E007F80738061C1
:10205E008061806180618073007F006E006000602F
:10206E00006000600000000000000000801D803F46
:10207E00807380618061806180618073803F801D8C
:10208E00800180018001800100000000000000003E
:10209E0000000067803F0039003000300030003013
:1020AE000030003000300000000000000000000092
:1020BE00000000000000001E803F80610060007F75
:1020CE00803F80018061007F001E00000000000044
:1020DE0000000000000800180018007F007F0018A4
:1020EE0000180018001800180018801F800F00003C
:1020FE0000000000000000000000000000008061F1
:10210E008061806180618061806180618063807F99
:10211E00803D0000000000000000000000000000F4
:10212E000000C060803180318031001B001B001B1D
:10213E00000E000E0006000000000000000000006F
:10214E0000000000000080DD80DD80DD00550055C0
:10215E0000550077007700220022000000000000EA
:10216E00000000000000000000008061003300331A
:10217E00001E000C000C001E0033003380610000B6
:10218E00000000000000000000000000806180617F
:10219E00803100330033001B001B001B000E000EAD
:1021AE00000E001C007C007000000000000000000B
:1021BE000000C07FC07F800100030006000C0018E5
:1021CE000030C07FC07F0000000000008003800749
:1021DE0000060006000600060006000E001C001C8D
:1021EE00000E0006000600060006000680078003AB
:1021FE0000060006000600060006000600060006A1
:10220E000006000600060006000600060006000690
:10221E00000600060038003C000C000C000C000C00
:10222E00000C000E00070007000E000C000C000C46
:10223E00000C000C003C0038000000000000000004
:10224E000000000000008038807F00470000000082
:0C225E0000000000000000000000000074
:0B226A004D5055363530004A514200FF
:08227500696E66006E616E00E7
:10227E00A4E1B0E0E5E4F1E10C94EB1A6C011A0173
:10228E00462E5901FC0110861782848181FF62C39C
:10229E00CE0101969D878C87A0E88A8B9B8BAC8B99
:1022AE00F101849147FC8081882309F44FC3442DAA
:1022BE0091012F5F3F4F4F4F853219F01901442E78
:1022CE000AC0F901849147FD808192E0290E311CEC
:1022DE00411C853249F4B60190E00E949819BF86E0
:1022EE00AE86AE84BF84DCCF10E0F12C00E000326D
:1022FE00A0F48B3269F030F4803259F0833269F4F5
:10230E0000612CC08D3239F0803339F4016026C063
:10231E000260046023C0086021C007FD29C090ED53
:10232E00980F9A3078F406FF06C0AAE01A9F900D17
:10233E001124192F13C0EAE0FE9E900D1124F92EE0
:10234E0000620CC08E3221F406FD00C3006406C08C
:10235E008C3611F4006802C0883651F4F101849174
:10236E0047FC8081FFEF2F1A3F0A4F0A8111BFCF22
:10237E009BEB980F933018F40061805E06C09BE9CA
:10238E00980F933008F066C10F7E06FF16E00F73AC
:10239E00702E853621F4202F2064722E08C08636CA
:1023AE0021F4802F8068782E02C01111115077FE13
:1023BE0007C01C3350F4EE24E394E10E27E00BC06B
:1023CE00183038F027E017E005C027E06CE3E62E62
:1023DE0002C0212FE12CF5013496FF87EE87F5011F
:1023EE0060817181828193810E2DAE014F5F5F4FAF
:1023FE000E94E1145C01598050FE02C053FE06C0DB
:10240E0071FC06C072FE06C000E205C00DE203C0FC
:10241E000BE201C000E0852D8C7019F0011173C222
:10242E00BEC277FE0FC0EA0C54FE04C08A8181330F
:10243E0009F4EA941E1474F528E02E1578F538E0A8
:10244E00E32E2CC076FC2AC0812F90E08A159B05C6
:10245E009CF08CEFA8168FEFB80674F0972D90684D
:10246E00792E0AC0E2E0F0E0EC0FFD1FE10FF11D46
:10247E008081803319F411501111F4CF77FE0EC004
:10248E00EE24E394E10E812F90E0A816B9062CF409
:10249E001A1904C0EE24E39401C010E077FE06C0C2
:1024AE001A141B0434F4C501019605C085E090E0B2
:1024BE0002C081E090E001110196112331F0212F2D
:1024CE0030E02F5F3F4F820F931F2F2D30E082178A
:1024DE00930714F4F81A01C0F12C872D897049F472
:1024EE00FF2039F0B60180E290E00E949819FA942C
:1024FE00F7CF002329F0B601802F90E00E949819A3
:10250E0073FC09C0FF2039F0B60180E390E00E9411
:10251E009819FA94F7CF77FE49C03501B7FE02C07D
:10252E00612C712CC5018619970988248394912CEE
:10253E008C0E9D1E880E991EF501EE19F109F98B70
:10254E00E88B012F10E0119501951109FFEF6F1621
:10255E007F0629F4B6018EE290E00E949819A61427
:10256E00B70444F088899989861597051CF4F401FF
:10257E00818101C080E3F1E06F1A71082FEF821A9A
:10258E00920A601671062CF0B60190E00E9498191E
:10259E00DDCFA614B70439F49A81963318F4953327
:1025AE0011F454FE81E3B60190E051C08A8181336B
:1025BE0019F0952D9F7E592EB60190E00E94981924
:1025CE00111105C074FC1CC085E690E01BC0B6015D
:1025DE008EE290E00E94981902E0010F82E011E075
:1025EE00180FE1E0F0E0EC0FFD1FE80FF11D808108
:1025FE00B60190E00E949819812F1013F0CFE2CF10
:10260E0085E490E0B6010E949819B7FC05C0A114AC
:10261E00B10439F454FE05C0B194A194B1088DE211
:10262E0001C08BE2B60190E00E94981980E3EAE0C7
:10263E00AE16B1042CF08F5FAAE0AA1AB108F7CF3C
:10264E00B60190E00E949819B601C501C0960E948D
:10265E00981972C1833631F0833791F0833509F0C2
:10266E005DC024C0C50102969F878E87F5018081CB
:10267E0089836A887B888C88AA24A394B12C14C081
:10268E00C50103969F878E87F501608071808280D9
:10269E0006FF03C0412F50E002C04FEF5FEF882DC1
:1026AE00B3010E94221B5C010F7715C0C501039672
:1026BE009F878E87F50160807180828006FF03C040
:1026CE00412F50E002C04FEF5FEF882DB3010E9403
:1026DE00221B5C01006803FD1DC08F2D90E0A81623
:1026EE00B906C0F4B60180E290E00E949819FA94FF
:1026FE00F4CFF301849187FC8081FFEF6F1A7F0A7C
:10270E008F0AB60190E00E949819F110FA9421E018
:10271E00A21AB108A114B10461F70EC1843611F0EA
:10272E00893679F5C50107FF09C004969F878E8704
:10273E00F50160817181828193810AC002969F8723
:10274E008E87F50160817181072E000C880B990B25
:10275E000F76E02E97FF0AC0909580957095619543
:10276E007F4F8F4F9F4FF02FF068EF2E2AE030E013
:10277E00AE014F5F5F4F0E945618A82E2C85A21AED
:10278E004BC0853729F40F7EE02E2AE030E025C0BD
:10279E00902F997FE92E8F36C1F018F4883579F095
:1027AE00D5C0803719F0883721F0D0C0A92FA0618D
:1027BE00EA2EE4FE0DC0EE2DE460EE2E09C004FFFD
:1027CE000AC0F92FF660EF2E06C028E030E005C0F3
:1027DE0020E130E002C020E132E0C501E7FE09C091
:1027EE0004969F878E87F501608171818281938126
:1027FE0008C002969F878E87F5016081718180E007
:10280E0090E0AE014F5F5F4F0E945618A82EFC85D8
:10281E00AF1A2E2D2F77E22EE6FE0BC00E2D0E7F59
:10282E00A11650F4E4FE0AC0E2FC08C00E2D0E7E86
:10283E0005C0BA2C0E2D03C0BA2C01C0B12E04FF58
:10284E000DC0FE01EA0DF11D8081803311F4097E69
:10285E0009C002FF06C0B394B39404C0802F8678DB
:10286E0009F0B39403FD11C000FF06C0BF1488F435
:10287E00FA0C1F2D1B190EC0BF1460F4B60180E2B6
:10288E0090E00E949819B394F7CFBF1418F4FB1878
:10289E0002C01A2DF12C04FF10C0B60180E390E0A7
:1028AE000E94981902FF17C001FD03C088E790E04F
:1028BE0002C088E590E0B6010CC0802F867859F0F2
:1028CE0001FF02C08BE201C080E207FD8DE2B6017E
:1028DE0090E00E949819A11638F4B60180E390E0BA
:1028EE000E9498191150F7CFAA94E1E0F0E0EC0F96
:1028FE00FD1FEA0DF11D8081B60190E00E9498192E
:10290E00A110F2CF19C0F4E0FF1580F584E0F81A9B
:10291E0073FE23C001112BC053FE2FC059E7852E25
:10292E0052E2952E50E0A52E072D0071F4018491F0
:10293E00A7FC8081811128C0FF2009F4D2CCB601FA
:10294E0080E290E00E949819FA94F6CFF601878102
:10295E0090852CC08FEF9FEF29C0B60180E290E0EA
:10296E000E949819FA94F110F8CFD4CFF12CB60139
:10297E00802F90E00E949819CFCF45E7842E42E237
:10298E00942E40E0A42ED0CF01118052B60190E0DB
:10299E000E949819FFEF8F1A9F0AAF0AC7CF23E044
:1029AE002F1510F483E0B3CFF12CB6CF6496E2E18D
:0429BE000C94071B53
:1029C200283008F027E03327DA01990F311D87FDFF
:1029D200916000966105710539F432602E5F3D9376
:1029E20030E32A95E1F708959F3F30F08038710572
:1029F200610509F03C5F3C5F3D93913008F08068CF
:102A0200911DDF93CF931F930F93FF92EF92192F94
:102A1200987F9695E92F96959695E90FFF27E253B1
:102A2200FF4F99273327EE24FF24A701E7010590E2
:102A32000894079428F4360FE71EF81E491F511D0B
:102A4200660F771F881F991F0694A1F705900794B8
:102A520028F4E70EF81E491F561FC11D770F881F65
:102A6200991F661F0694A1F70590079428F4F80EA3
:102A7200491F561FC71FD11D880F991F661F771F39
:102A82000694A1F70590079420F4490F561FC71F1B
:102A9200D81F990F661F771F881F0694A9F7849184
:102AA2001095177041F0D695C79557954795F794AD
:102AB200E7941A95C1F7E4E7F0E068941590159150
:102AC20035916591959105907FE27395E118F10A30
:102AD200430B560BC90BD009C0F7E10CF11E431F83
:102AE200561FC91FD01D7EF4703311F48A95E6CFAC
:102AF200E894015030F0080F0AF40027021708F496
:102B0200202F2395022F7A3328F079E37D932A959B
:102B1200E9F710C07D932A9589F6069497956795F3
:102B2200379517951794E118F10A430B560BC90B09
:102B3200D00998F023957E9173957A3308F070E36B
:102B42007C932013B8F77E9170617D9330F083956A
:102B520071E37D9370E32A95E1F71124EF90FF90E2
:102B62000F911F91CF91DF91992787FD909508953D
:102B72002F923F924F925F926F927F928F929F928B
:102B8200AF92BF92CF92DF92EF92FF920F931F9379
:102B9200CF93DF932091880530918905FB019081C5
:102BA200290F311D2038310508F08AC020918A058D
:102BB20030918B059181290F311D2034310508F0A8
:102BC20081C0342EEB01282E412C512C320162C0DF
:102BD2002A813B814C81622D70E060527109569FBF
:102BE200C001579F900D11248201840D951D880FFD
:102BF200991F6901E42EC80ED91EE11C97FDEA94C3
:102C0200AE2DC601F6015A2F0E948A1B4B01A12C40
:102C1200B12CC12CD12C76012FC0C601B501A40163
:102C22000C2C04C0440F551F661F771F0A94D2F75D
:102C320057FF0EC0E8E8F5E06281738180819181DF
:102C4200600F711F8C0D9D1D432D0E940C190FC02A
:102C5200E8E8F5E0628173812081318141E0311041
:102C620040E0600F711F820F931F0E940C198FEFBB
:102C7200C81AD80AE80AF80A888190E0A0E0B0E011
:102C8200C816D906EA06FB0640F2EFEF4E1A5E0AB4
:102C92006E0A7E0A5981852F90E0A0E0B0E04816C6
:102CA20059066A067B0608F493CF2881E8E8F5E026
:102CB20080819181820F911D91838083822D03C037
:102CC20080E001C080E0DF91CF911F910F91FF90D2
:102CD200EF90DF90CF90BF90AF909F908F907F90BA
:0C2CE2006F905F904F903F902F900895EE
:102CEE004EEA60E08DE30E94561B40E260E08DE309
:102CFE000E94561B40E160E08DE30E94561B40EBA4
:102D0E0060E08DE30E94561B48EC60E08DE30E946C
:102D1E00561B40E060E08DE30E94561B40E160E0F0
:102D2E008DE30E94561B40E460E08DE30E94561B2B
:102D3E0041E860E08DE30E94561B4FEF60E08DE3AB
:102D4E000E94561B41EA60E08DE30E94561B46EA44
:102D5E0060E08DE30E94561B48EA60E08DE30E941E
:102D6E00561B4FE360E08DE30E94561B44EA60E081
:102D7E008DE30E94561B43ED60E08DE30E94561BCF
:102D8E0040E060E08DE30E94561B45ED60E08DE370
:102D9E000E94561B40EF60E08DE30E94561B49EDEA
:102DAE0060E08DE30E94561B42E260E08DE30E94DC
:102DBE00561B4AED60E08DE30E94561B42E160E037
:102DCE008DE30E94561B4BED60E08DE30E94561B77
:102DDE0040E260E08DE30E94561B4DE860E08DE31B
:102DEE000E94561B44E160E08DE30E94561B4FEAA1
:102DFE0060E08DE30E94561B4EE260E08DE30E9480
:102E0E00561B80E00E947C1B0E94691AE8E8F5E0E0
:0E2E1E00118210821382128281E08583089552
:102E2C0010C00E94A71B58F00E94A01B40F029F470
:102E3C005F3F29F00C94BC1B51110C94AF1B0C94EC
:102E4C00CA1B0E948D1A68F39923B1F3552391F391
:102E5C00951B550BBB27AA2762177307840738F0FD
:102E6C009F5F5F4F220F331F441FAA1FA9F335D05A
:102E7C000E2E3AF0E0E832D091505040E695001C0E
:102E8C00CAF72BD0FE2F29D0660F771F881FBB1FC8
:102E9C00261737074807AB07B0E809F0BB0B802DA6
:102EAC00BF01FF2793585F4F3AF09E3F510578F0D2
:102EBC000C94BC1B0C94AF1B5F3FE4F3983ED4F313
:102ECC00869577956795B795F7959F5FC9F7880FA6
:102EDC00911D9695879597F90895E1E0660F771FF8
:102EEC00881FBB1F621773078407BA0720F0621B89
:0E2EFC00730B840BBA0BEE1F88F7E095089558
:102F0A000FC00E94A01B38F00E94A71B20F0952337
:102F1A0011F00C94BC1B0C94CA1B11240C94AF1B0B
:102F2A000E948D1A70F3959FC1F3950F50E0551FBB
:102F3A00629FF001729FBB27F00DB11D639FAA2704
:102F4A00F00DB11DAA1F649F6627B00DA11D661F53
:102F5A00829F2227B00DA11D621F739FB00DA11D74
:102F6A00621F839FA00D611D221F749F3327A00D2E
:102F7A00611D231F849F600D211D822F762F6A2FCA
:102F8A0011249F5750409AF0F1F088234AF0EE0F2F
:102F9A00FF1FBB1F661F771F881F91505040A9F75C
:102FAA009E3F510580F00C94BC1B0C94AF1B5F3FF5
:102FBA00E4F3983ED4F3869577956795B795F79598
:102FCA00E7959F5FC1F7FE2B880F911D9695879510
:042FDA0097F90895C6
:102FDE0011C00E94A01B38F00E94A71B20F039F4EC
:102FEE009F3F19F426F40C94CA1B0EF4E095E7FBF0
:102FFE000C94BC1BE92F0E948D1A58F3BA17620766
:10300E0073078407950720F079F4A6F50C94AE1B90
:10301E000EF4E0950B2EBA2FA02D0B01B9019001E5
:10302E000C01CA01A0011124FF27591B99F0593F29
:10303E0050F4503E68F11A16F040A22F232F342F71
:10304E004427585FF3CF469537952795A795F040BF
:10305E005395C9F77EF41F16BA0B620B730B840BD4
:10306E00BAF09150A1F0FF0FBB1F661F771F881F8C
:10307E00C2F70EC0BA0F621F731F841F48F48795E4
:10308E0077956795B795F7959E3F08F0B0CF9395D6
:0E309E00880F08F09927EE0F979587950895F3
:1030AC00FA01AA27283051F1203181F1E8946F936D
:1030BC006E7F6E5F7F4F8F4F9F4FAF4FB1E03ED013
:1030CC00B4E03CD0670F781F891F9A1FA11D680FB1
:1030DC00791F8A1F911DA11D6A0F711D811D911DE4
:1030EC00A11D20D009F468943F912AE0269F112459
:1030FC003019305D3193DEF6CF010895462F4770BD
:10310C00405D4193B3E00FD0C9F7F6CF462F4F7017
:10311C00405D4A3318F0495D31FD4052419302D075
:10312C00A9F7EACFB4E0A69597958795779567951B
:10313C00BA95C9F700976105710508959B01AC011B
:10314C000A2E06945795479537952795BA95C9F742
:0C315C00620F731F841F951FA01D0895B3
:1031680084B1816284B985B1807C85B985B181607B
:1031780085B960E87AE186E090E00E94AF1A85B1EF
:103188008E7F85B98FE39CE90197F1F700C00000B5
:1031980085B1816085B90E94771660E070E080E0B3
:1031A80090E00E94921B27E030E04AE652E260E09D
:1031B80082E191E00E943D1B41E06EE875E082E10A
:1031C80091E00E94CF1A6EE170E08AE090E00E94E0
:1031D800921B24E030E041E752E260E082E191E0B6
:1031E8000E943D1B41E063E975E082E191E00E94A5
:1031F800CF1A0E94691A83B1806283B99FEF21EECA
:1032080084E0915020408040E1F700C00000F3CFF7
:103218008038910508F04AC06034710508F046C04E
:1032280020918C05222321F021E0411120E0422F3A
:103238004130F1F4FB01F695E795F695E795F6959B
:10324800E795F695FE2FEE27F795E7958E0F9F1FCA
:103258006770772721E030E002C0220F331F6A959C
:10326800E2F7FC01E857FE4F8081282B2083089560
:10327800FB01F695E795F695E795F695E795F695AA
:10328800FE2FEE27F795E7958E0F9F1F677077271C
:1032980021E030E002C0220F331F6A95E2F7FC01FB
:0E32A800E857FE4F209580812823208308954B
:1032B600E89409C097FB3EF49095809570956195CA
:1032C6007F4F8F4F9F4F9923A9F0F92F96E9BB2780
:1032D6009395F695879577956795B795F111F8CFFC
:1032E600FAF4BB0F11F460FF1BC06F5F7F4F8F4F67
:1032F6009F4F16C0882311F096E911C0772321F05D
:103306009EE8872F762F05C0662371F096E8862FF4
:1033160070E060E02AF09A95660F771F881FDAF74B
:0A332600880F9695879597F9089592
:103330000F931F93CF93DF93FB01248121FD03C0E3
:103340008FEF9FEF2CC022FF16C04781508525814B
:1033500036814217530744F4A081B1819D012F5F4C
:103360003F4F318320838C93278130852F5F3F4FE0
:103370003087278314C08B01EC01FB010184F285A7
:10338000E02D0995892BE1F6D80117968D919C9136
:103390001897019618969C938E931797CE01DF91FC
:0833A000CF911F910F910895D8
:1033A8000F931F93CF93DF93CDB7DEB7DA950FB6A0
:1033B800F894DEBF0FBECDBF8901698390E00FC0CE
:1033C800E92FF0E03196640F751FDB013C9161E055
:1033D80070E06C0F7D1FE60FF71F30839F5F692F2A
:1033E80070E06017710760F398012F5F3F4F40E06E
:1033F80050E0BE016F5F7F4F0E943C1AD3950FB615
:10340800F894DEBF0FBECDBFDF91CF911F910F9112
:02341800089515
:10341A000E94951A88F09F5798F0B92F9927B751AB
:10342A00B0F0E1F0660F771F881F991F1AF0BA955E
:10343A00C9F714C0B13091F00E94AE1BB1E00895F3
:10344A000C94AE1B672F782F8827B85F39F0B93FE5
:10345A00CCF3869577956795B395D9F73EF4909511
:0E346A008095709561957F4F8F4F9F4F08950D
:10347800FB01ACEBB0E09C91946A9C939091BC00EA
:103488009923E4F7880F8093BB0084E88093BC00FD
:103498008091BC008823E4F70FC080818093BB0033
:1034A80084E88093BC008091BC008823E4F73196BF
:1034B80021503109410951092115310541055105AD
:0A34C80061F784E98093BC000895C9
:1034D200CF93C0E01DC040EB4C0F60E08DE30E9433
:1034E200561B40E060E08DE30E94561B40E160E025
:1034F2008DE30E94561B80E8C89FA0011124485703
:103502005E4F20E830E060E48DE30E94D419CF5F83
:08351200C83008F3CF910895C1
:10351A0057FD9058440F551F59F05F3F71F047957A
:10352A00880F97FB991F61F09F3F79F0879508955F
:10353A00121613061406551FF2CF4695F1DF08C07E
:10354A00161617061806991FF1CF8695710561059B
:04355A000894089534
:10355E000E945B199B01AC0160E074E284E79BE47E
:10356E000E94C21B20E030E040E851E40E94991B0B
:10357E0020E030E040E05FE30E94C61B0E940D1A7F
:10358E006093B800ECEBF0E0808184608083089556
:10359E00EF92FF921F93CF93DF93EC017B01142FD9
:1035AE0009C0412FB701892F0E94B915988189133F
:1035BE0004C0219698819111F4CF892FDF91CF917C
:0835CE001F91FF90EF9008959A
:1035D6002F923F924F925F926F927F928F929F921D
:1035E600AF92BF92CF92DF92EF92FF920F931F930B
:1035F600CF93DF93CDB7DEB7CA1BDB0B0FB6F894BC
:08360600DEBF0FBECDBF099429
:10360E002A88398848885F846E847D848C849B8464
:10361E00AA84B984C884DF80EE80FD800C811B8172
:10362E00AA81B981CE0FD11D0FB6F894DEBF0FBEA1
:06363E00CDBFED0108956F
:10364400CF92DF92EF926B01E82EA82FCB014115A8
:10365400510531F48C199D09EF90DF90CF900895B6
:10366400FC012491A7FD20812223A1F30196A11D31
:0636740041505109ECCFAA
:10367A00CF92DF92EF92DC016A01E62E280F391F02
:10368A00A217B30751F0F6014491E7FC40814D932C
:10369A004FEFC41AD40AE40AF3CFEF90DF90CF9029
:0236AA00089581
:1036AC00CF93DF9300D0CDB7DEB769834A8322E096
:1036BC0030E040E050E0BE016F5F7F4F0E943C1A4B
:0A36CC000F900F90DF91CF91089549
:1036D600092E0394000C11F4882352F0BB0F40F41A
:1036E600BF2B11F460FF04C06F5F7F4F8F4F9F4F5A
:0236F600089535
:1036F800811103C060E070E002C06FEF70E040E04D
:0C37080054E088E891E00E94B51B089591
:1037140057FD03C065917591089561917191089564
:0E372400E8E8F5E09183808373836283089563
:0E3732005058BB27AA270E94EF170C946B1B60
:0E37400000240A9416161706180609060895A6
:0E374E0000240A9412161306140605060895A8
:0E375C00E894BB2766277727CB0197F90895DD
:0E376A00DC0101C06D9341505040E0F708951E
:0C37780097F99F6780E870E060E008951A
:083784000E9416170C946B1B48
:08378C000E9485170C946B1BD1
:063794009FEF80EC089598
:04379A000C9400008B
:05379E00101AC2010039
:0537A3000B120E1500E1
:00000001FF
