:100000000C9437000C947A000C948C000C949E0095
:100010000C949E000C949E000C949E000C949E00E8
:100020000C949E000C949E000C949E000C949E00D8
:100030000C949E000C949E000C949E000C949E00C8
:100040000C949E000C949E000C949E000C949E00B8
:100050000C949E000C949E000C949E000C949E00A8
:100060000C949E000C949E0001000101800011245C
:100070001FBECFEFD8E0DEBFCDBFE8E6F0E040E046
:1000800017C0B591A59135912591059107FD0CC03B
:1000900095918591EF01F92FE82F05900D92A21708
:1000A000B307D9F7FE0104C01D92A217B307E1F709
:1000B000ED36F40731F70E9461000C945F00F8946C
:0200C000FFCF70
:1000C200F8948AB1837F8AB98BB18C608BB9E9E6E7
:1000D200F0E08081826080838DB381608DBB8081FE
:1000E200886080838DB382608DBB8FEF84B97894F2
:0200F200FFCF3E
:1000F4001F920F920FB60F9211248F9380910001DB
:100104008F5F8093000185B98F910F900FBE0F9080
:040114001F9018958B
:100118001F920F920FB60F9211248F9380910001B6
:1001280081508093000185B98F910F900FBE0F9079
:040138001F90189567
:04013C000C9400001F
:00000001FF
