:100000000C9434000C9456000C9456000C9456003A
:100010000C9456000C9456000C9456000C94560008
:100020000C9456000C9456000C9456000C945600F8
:100030000C9456000C9456000C9456000C945600E8
:100040000C9456000C9456000C9456000C945600D8
:100050000C9456000C9456000C9456000C945600C8
:100060000C9456000C94560011241FBECFEFD8E01C
:10007000DEBFCDBF0E9440000C943E00F894FFCF3D
:1000800084B18E7F84B984B1806284B98AB18E7F55
:100090008AB983B1806283B92FEF80E792E0215063
:0C00A00080409040E1F700C00000F3CF6A
:0400AC000C940000B0
:00000001FF
