:100000000C9437000C94D7000C94D7000C94D700B4
:100010000C94D7000C94D7000C94D7000C94D70004
:100020000C94D7000C94D7000C94D7000C94D700F4
:100030000C94D7000C94D7000C94D7000C94D700E4
:100040000C94D7000C94D7000C94D7000C94D700D4
:100050000C94D7000C94D7000C94D7000C94D700C4
:100060000C94D7000C94D7000100010180001124EA
:100070001FBECFEFD8E0DEBFCDBFE8E6F0E040E046
:1000800017C0B591A59135912591059107FD0CC03B
:1000900095918591EF01F92FE82F05900D92A21708
:1000A000B307D9F7FE0104C01D92A217B307E1F709
:1000B000ED36F40731F70E9461000C945F00F8946C
:0200C000FFCF70
:1000C20084B1856184B987B1816087B98AB18A7A3E
:1000D2008AB98BB185658BB989B129B199B139B129
:1000E20086FB882780F9880F880F880F2295217058
:1000F200220F220F822B96959695990F892B932F7B
:100102009170892B809300012FEF83EC99E02150AD
:1001120080409040E1F700C00000809100018230F1
:1001220099F028F4882341F0813051F019C08330CE
:1001320079F0843089F014C082E00E94B500CCCFFF
:100142008AE00E94B500C8CF8BE00E94B500C4CF00
:1001520087E00E94B500C0CF85E00E94B500BCCF09
:0801620080E00E94B500B8CF57
:10016A0095B19A7E95B998B19E7F98B995B1282F85
:10017A002170922B95B925B181FB992790F9990F96
:10018A00990F922B95B925B182FB992790F99295EF
:10019A00907F922B95B998B183FB882780F9892B98
:0401AA0088B9089573
:0401AE000C940000AD
:00000001FF
