:100000000C9437000C94AA000C94AA000C94AA003B
:100010000C94AA000C94AA000C94AA000C94AA00B8
:100020000C94AA000C94AA000C94AA000C94AA00A8
:100030000C94AA000C94AA000C94AA000C94AA0098
:100040000C94AA000C94AA000C94AA000C94AA0088
:100050000C94AA000C94AA000C94AA000C94AA0078
:100060000C94AA000C94AA00010001018000112444
:100070001FBECFEFD8E0DEBFCDBFE8E6F0E040E046
:1000800017C0B591A59135912591059107FD0CC03B
:1000900095918591EF01F92FE82F05900D92A21708
:1000A000B307D9F7FE0104C01D92A217B307E1F709
:1000B000ED36F40731F70E9461000C945F00F8946C
:0200C000FFCF70
:1000C20084B18F6084B98AB1807F8AB98BB18F6025
:1000D2008BB989B18F70809300012FEF83EC99E087
:1000E200215080409040E1F700C000008091000163
:1000F2008530E9F028F4882341F0823089F025C068
:100102008630E1F08F3029F020C085B18F6085B94B
:10011200E0CF85B1807F85B985B18A6085B9D9CFB5
:1001220085B1807F85B985B1836085B9D2CF85B12C
:10013200807F85B985B1816085B9CBCF85B1807F5C
:1001420085B985B18C6085B9C4CF85B1807F85B909
:02015200C0CF1C
:040154000C94000007
:00000001FF
